:100000000C9424080C9445080C9445080C9445085D
:100010000C9445080C9445080C9445080C9445082C
:100020000C9445080C9445080C9445080C9445081C
:100030000C9445080C9445080C9445080C9445080C
:100040000C9445080C9445080C9445080C944508FC
:100050000C9445080C94CC380C9445080C94450835
:100060000C9445080C942B670C9445080C94450897
:100070000C9445080C9445080C9445080C944508CC
:100080000C9445080C9445080C944508FEC70000E4
:100090000C94C367FAC70000F8C70000F6C7000059
:1000A000F4C70000F2C70000F0C70000EEC7000070
:1000B000ECC70000EAC70000E8C70000E6C7000080
:1000C000E4C70000E2C70000E0C700000C945B68D2
:1000D000DCC70000DAC70000D8C70000D6C70000A0
:1000E000D4C70000A014A714FF140515BE15BE1533
:1000F000BE15BE15BE15BE1587158C1591159B1521
:10010000AE153C463B463B463B463B463B463B46A4
:100110003B463B463B463B463B463B463B463B46D7
:100120003B463B463B463B463B463B463B463B46C7
:100130003B463B463B463B463B463B463B463B46B7
:100140003B463B463B463B463B463B463B463B46A7
:100150003B463B463B463B4635463B463B463B469D
:100160003B463B463B463B463B463B463B463B4687
:100170003B463B463B463B463B463B463B463B4677
:100180003B463B460C4428444544DF453B466644D9
:1001900029456C4474443B463B463B46A5443B469C
:1001A0003B463B463B46CC44D844D9450F452945C0
:1001B000B845D945F145FB453B463B463B463B46AA
:1001C0003B463B461A4436444E4454445C443B460A
:1001D000294536443B4683448B449544AF44B84458
:1001E0003B46BD443B46D244E0440A451A45B2452D
:1001F000D145DF45E64501466F4A7F4A8F4A9E4A10
:10020000AF4AC54A274C274C274C274C274C274C34
:10021000274C274CD14AA24B0A4C1E4E1E4E3B4E39
:100220003B4E764E764E644E644E644E644E644E43
:10023000644E644E644E764E764E536C65657069BE
:100240006E6720666F7265766572202E2E2E0053C3
:100250006C656570696E6720666F72657665722081
:100260002E2E2E007C0273026A025465726D696E36
:10027000616C004D6F6E69746F72730053797374A3
:10028000656D2054696D65005465726D696E616CB1
:1002900020737461727465640D0A00537461636B3A
:1002A000206F766572666C6F77210D0A005374615A
:1002B000636B206F766572666C6F77210D0A00CDD7
:1002C00002C30249646C65205461736B004252544E
:1002D0004F53205665722E20312E37390020627917
:1002E0007465732F7365632E0A0D0020627974653F
:1002F0007320636F70696564207769746820000AF1
:100300000D436F7079696E672066696C650A0D0030
:100310000A0D44657374696E6174696F6E20666955
:100320006C6520636F756C64206E6F74206265204D
:1003300063726561746564206F7220616C726561BF
:10034000647920657869737420210A0D000A0D53C1
:100350006F757263652066696C6520646F657320D4
:100360006E6F7420657869737420210A0D000A0D80
:1003700046696C6520666F756E6420616E642072DC
:10038000656E616D656420210A0D004469726563C4
:10039000746F7279206973206E6F7420656D70744C
:1003A00079206F722066696C6520697320777269A5
:1003B00074652D70726F7465637465642E0A0D0028
:1003C0000A0D44656C6574652066696C65206F7202
:1003D000206469726563746F72792064656E696503
:1003E000642E0A0D002064656C6574656421200A22
:1003F0000D000A0D0020776173206E6F7420637208
:1004000065617465642E0A0D002077617320637244
:100410006561746564207375636365737366756C79
:100420006C792E0A0D000A0D4469726563746F724F
:1004300079200020776173206E6F7420637265618C
:100440007465642E0A0D000A0D0020776173206325
:100450007265617465642073756363657373667533
:100460006C6C792E0A0D000A0D0020646F657320F4
:100470006E6F7420657869737420210A0D000A0D6F
:100480004469726563746F727920000A0D00206EF2
:100490006F7420666F756E642E0A0D000A0D0020C1
:1004A00062797465732F7365632E0A0D002062797B
:1004B0007465732072656164207769746820000A2E
:1004C0000D2066696C652072656164206572726FCB
:1004D000722E200A0D002062797465732E0A0D00B9
:1004E00066696C652073697A653A20000A0D0062BE
:1004F000797465732066726565200A0D0020697342
:10050000207361666520746F2072656D6F7665215A
:100510000A0D0020556E6B6E6F776E0020534448B5
:10052000430020534420763200205344207631008B
:10053000204D4D43207633001B06FC05DA05B70538
:10054000A10590058505790565054C05206661695D
:100550006C656420746F20696E697469616C697A76
:1005600065210A0D00206661696C656420746F2046
:100570006D6F756E74210A0D006465746563746532
:1005800064210A0D006D6F756E746564210A0D009B
:1005900046756E6374696F6E206661696C65642E62
:1005A00000416C6C20636F6E74656E7473207265AD
:1005B0006D6F7665642E006E6F7420707265736562
:1005C0006E74206F72206E6F7420696E6974696139
:1005D0006C697A656420210A0D00496E76616C6948
:1005E000642066696C65206F72206469726563744B
:1005F0006F7279206E616D652E0A0D0046696C651B
:10060000206F72206469726563746F7279206E6FF7
:100610007420666F756E642E0A0D000D0A53442017
:100620006361726420007B0667065706440637063E
:1006300032065B25645D003A202564206F66202524
:10064000640D0A004D454D4F52593A202564206FE4
:10065000662025640A0D000A0D5441534B20535463
:1006600041434B3A0A0D00435055204C4F41443A08
:100670002025642E256425250A0D00555054494D2A
:10068000453A2025642064202564206820256420C4
:100690006D20256420730A0D00820386038A038E71
:1006A00003920396039A039E03A203A603AA03AE32
:1006B0000333072A0724071E071A0715071007091F
:1006C00007FF06F706EE06E506B203B603BA03BE59
:1006D00003C203C603CA036D0766075E0754074BD0
:1006E0000744073B07446563656D626572004E6FA2
:1006F00076656D626572004F63746F626572005358
:10070000657074656D62657200417567757374001C
:100710004A756C79004A756E65004D6179004170CB
:1007200072696C004D617263680046656272756142
:100730007279004A616E75617279005361747572E5
:1007400064617900467269646179005468757273F6
:10075000646179005765646E6573646179005475EE
:100760006573646179004D6F6E6461790053756ED5
:10077000646179001F1C1F1E1F1E1F1F1E1F1E1FCE
:100780001F1D1F1E1F1E1F1F1E1F1E1F00C0C10179
:10079000C30302C2C60607C705C5C404CC0C0DCDF1
:1007A0000FCFCE0E0ACACB0BC90908C8D81819D961
:1007B0001BDBDA1A1EDEDF1FDD1D1CDC14D4D51591
:1007C000D71716D6D21213D311D1D010F03031F181
:1007D00033F3F23236F6F737F53534F43CFCFD3DB1
:1007E000FF3F3EFEFA3A3BFB39F9F83828E8E929A1
:1007F000EB2B2AEAEE2E2FEF2DEDEC2CE42425E551
:1008000027E7E62622E2E323E12120E0A06061A1C0
:1008100063A3A26266A6A767A56564A46CACAD6D70
:10082000AF6F6EAEAA6A6BAB69A9A86878B8B979E0
:10083000BB7B7ABABE7E7FBF7DBDBC7CB47475B510
:1008400077B7B67672B2B373B17170B05090915100
:100850009353529296565797559594549C5C5D9D30
:100860005F9F9E5E5A9A9B5B995958988848498920
:100870004B8B8A4A4E8E8F4F8D4D4C8C44848545D0
:1008800087474686824243834181804000C1814040
:1008900001C0804101C0804100C1814001C0804150
:1008A00000C1814000C1814001C0804101C0804140
:1008B00000C1814000C1814001C0804100C1814030
:1008C00001C0804101C0804100C1814001C0804120
:1008D00000C1814000C1814001C0804100C1814010
:1008E00001C0804101C0804100C1814000C1814000
:1008F00001C0804101C0804100C1814001C08041F0
:1009000000C1814000C1814001C0804101C08041DF
:1009100000C1814000C1814001C0804100C18140CF
:1009200001C0804101C0804100C1814000C18140BF
:1009300001C0804101C0804100C1814001C08041AF
:1009400000C1814000C1814001C0804100C181409F
:1009500001C0804101C0804100C1814001C080418F
:1009600000C1814000C1814001C0804101C080417F
:1009700000C1814000C1814001C0804100C181406F
:1009800001C0804101C0804100C1814000010203DB
:100990000405060708090D0E0F1011121314151681
:1009A00018191A1B1C1D1E1F20212223696A6B6C3B
:1009B000020A121A222A323A424A520D0A000D0A3B
:1009C0004D6F6E2025642C20456E7472792025644D
:1009D0003A20000D0A4D697373656420656E747268
:1009E0006965732025640D0A000D0A4D69737365EE
:1009F0006420656E74726965732025640D0A007742
:100A000072697465206661696C65640D0A007772AD
:100A1000697465206661696C65640D0A0020726501
:100A2000616420736C617665202564206F6B0D0A0C
:100A3000007265616420736C6176652025642066B0
:100A400061696C65640D0A007265616420736C6194
:100A50007665202564206661696C65640D0A006214
:100A6000756666657220746F6F20736D616C6C20A3
:100A70000D0A0062756666657220746F6F20736D73
:100A8000616C6C200D0A004C6F6720696E697420E0
:100A90006572726F004C6F6720696E6974206572B1
:100AA000726F3A202564004C6F6720696E6974206C
:100AB0006572726F3A202564004D6F6E2025642C9C
:100AC00020656E7472793A202564206F6620256453
:100AD0002C2064656C61793A202564202D20617694
:100AE000673A202564004572726F3A206E65772060
:100AF000686561646572004572726F3A206E657751
:100B000020686561646572004572726F3A206F708B
:100B1000656E2066696C652025730D0A004572724A
:100B20006F3A206F70656E2066696C652025730DC5
:100B30000A000D0A2072656164696E672074686539
:100B40002073616D652066696C652074686174202E
:100B500077652072656E616D656421200D0A000D58
:100B60000A2025732077696C6C2062652072656E9F
:100B7000616D656420746F202573200D0A000D0AD5
:100B80002072656E616D65206661696C6564200D1B
:100B90000A000D0A2072656E616D65206661696CE0
:100BA0006564200D0A000D0A2072656E616D652076
:100BB0006661696C6564200D0A000D0A20257320AA
:100BC00077696C6C2062652072656E616D6564206A
:100BD000746F202573200D0A004D202575205220AA
:100BE000656E642040256C752C206469666620253E
:100BF0006C750D0A004D20257520522073746172AA
:100C0000742040256C750D0A004D20257520572055
:100C1000656E642040256C752C206469666620250D
:100C20006C750D0A004D2025752057207374617274
:100C3000742040256C750D0A00677072732073650F
:100C4000727665720A0D2E0067707273207365727A
:100C50007665720A0D2E006170696B6579200A0D48
:100C60002E006170696B6579200A0D2E0073696D25
:100C70006F6E206970200A0D2E0073696D6F6E20F3
:100C80006970200A0D2E0073696D6F6E2073657296
:100C9000766572200A0D2E0073696D6F6E20736584
:100CA00072766572200A0D2E006E756D5F6D6F6E27
:100CB00069746F726573206F75206D61696F722042
:100CC000717565202564200A0D2E006E756D5F6DAF
:100CD0006F6E69746F726573206F75206D61696FD7
:100CE0007220717565202564200A0D2E0074616DD7
:100CF000616E686F00696E74657276616C6F006E0C
:100D00006F6D6500636F6469676F00736C61766512
:100D1000004D6F6E69746F7200677072735F6170FF
:100D20006E006170695F6B65790073696D6F6E5FEE
:100D300069700073696D6F6E5F73657276657200BE
:100D40006E756D5F6D6F6E69746F7265732073750C
:100D5000706572696F7220616F207375706F727445
:100D600061646F0A0D2E006E756D5F6D6F6E697434
:100D70006F726573207375706572696F7220616F31
:100D8000207375706F727461646F0A0D2E006E753A
:100D90006D5F6D6F6E69746F72657300436F6E6621
:100DA00069670020737461727465640D0A002073B2
:100DB0007461727465640D0A006D6F6462757320EE
:100DC000736C617665206E616F207375706F7274DD
:100DD00061646F200D0A006D6F6462757320736C1F
:100DE000617665206E616F207375706F72746164D7
:100DF0006F200D0A00436F6E666967204F4B0D0A26
:100E000000436F6E666967204F4B0D0A0053696D92
:100E10006F6E20696E6974204F4B0D0A0053696D27
:100E20006F6E20696E6974204F4B0D0A0053696D17
:100E30006F6E20696E6974206572726F720D0A00A0
:100E400053696D6F6E20696E6974206572726F727E
:100E50000D0A007A0E660E590E0D0A4D6F6E6974FA
:100E60006F72202564000D0A4D6F6E69746F7220D9
:100E70006572726F3A20256420000D0A436F6E661A
:100E80006967206572726F3A2066616C74616E6486
:100E90006F20006D6F64656D206E6F74206F6B0046
:100EA000556E6B6E6F776E20636F6D6D616E642132
:100EB00000537570706F7274656420636F6D6D613F
:100EC0006E64733A0048656C70206F6620636F6DC6
:100ED0006D616E64730073746172742025752C20CB
:100EE0006E5F726567732025750D0A004D423A20CA
:100EF000736C6176652025752C2066756E202575CE
:100F00002C20000D0A2075736167653A0D0A69206F
:100F10002D207265616420696E707574207265673A
:100F200073200D0A68202D207265616420686F6C43
:100F300064696E672072656773200D0A70202D202A
:100F40007072696E7420616E73776572200D0A612C
:100F5000202D2073657420736C6176652061646454
:100F600072657373200D0A73202D2073746172747F
:100F7000207265672061646472657373200D0A6E68
:100F8000202D206E756D206F662072656773200DB1
:100F90000A004D6F64627573206572726F000A0DEE
:100FA00000436F6E74726F6C204D6F6462757300D6
:100FB000436F70792046696C65004D616B652064F4
:100FC0006972004372656174652046696C65005200
:100FD000656E616D652046696C650052656D6F7662
:100FE000652046696C650052656D6F7665205344D7
:100FF0002043617264004D6F756E7420534420432A
:10100000617264004368616E676520646972004CB8
:101010006973742066696C6573005265616420664B
:10102000696C65004252544F5320544F5000425255
:10103000544F532056657273696F6E006364696E16
:101040006F70737578585B0011241FBECFEFD1E22B
:10105000DEBFCDBF00E00CBF16E0A0E0B2E0EEE0E6
:10106000F5EE00E00BBF02C007900D92A433B1076C
:10107000D9F72EE1A4E3B6E001C01D92A739B2076B
:10108000E1F70E94E8680C9485720C9400008FE4EC
:1010900092E00E9413626AE372E086E192E00E94AD
:1010A000AF3E0E94EF6584EF91E062D10E94F0654F
:1010B00084EF91E05DD1F5CF0F931F930E940266FC
:1010C0000FD40E94EE6530D00E94D34EE4E6F2E0E9
:1010D0006591749100E010E027E040E450E08BE17E
:1010E00099E08ED28111D3DFE6E6F2E0659174914A
:1010F00000E010E023E040E054E08AEA9BE580D283
:101100008111F1CFE8E6F2E06591749122E040E0D0
:1011100052E08CE399E074D28111E5CF2ED4811195
:10112000FFCF1F910F9108950E94EF1181E0089564
:101130008F929F92AF92BF92DF92EF92FF920F93A6
:101140001F93CF93DF9300D0CDB7DEB75A0179015B
:101150006B838A830E94051223E436E04BEC5BE04C
:101160006B818A810E94094A019619F40FEF1FEFE3
:101170004CC063ED7BE086E396E00E94ED4C019667
:10118000A9F3F0923E06E0923D06E02EF12CF0929B
:101190004006E0923F0610924206109241068DE30F
:1011A00096E00E94404A8C0180359105F8F6D09077
:1011B0004A0680904B0690904C0682E090E0D8D092
:1011C0006D2D70E0C4010E9409128AE090E0D0D039
:1011D0006AE070E0CE0101960E9433128823A9F0E4
:1011E00089810E94044D8C0197FDC0CF892B81F726
:1011F000B701C5010E94CB4D01E010E0892B11F42D
:1012000000E010E01195019511090E94354A0E94F5
:1012100040120E940712C8010F900F900F90DF91AB
:10122000CF911F910F91FF90EF90DF90BF90AF9003
:101230009F908F9008954ED50E94EF650E94F065B3
:1012400000E010E0C0E0D0E0A8958AE090E090D007
:101250002A96C83E83E0D80760F00DD55AD50F5FB7
:101260001F4F00318EE0180711F400E010E0C0E0DD
:10127000D0E00E94D215E8CF04E021E044E250E043
:1012800063E370E080E00E94536688E097E60E9486
:10129000EE1683EF96E10E9495628DE296E00E9441
:1012A0007A6387E296E00E947A6381E296E00E9488
:1012B0007A638BE196E00E947A6385E196E00E9472
:1012C0007A638FE096E00E947A6389E096E00E945C
:1012D0007A6383E096E00E947A638DEF95E00E9446
:1012E0007A6387EF95E00E947A6381EF95E00E9430
:1012F0007A638BEE95E00E947A6385EE95E00E941A
:101300007A630E94DD6188E892E00E9413620E9485
:10131000E1610E94A962FDCF41E050E060E070E031
:10132000409356065093570660935806709359069B
:1013300083B7816083BF889583B78E7F83BFF0CFEB
:1013400080915E0690915F06089580915E0690916F
:101350005F06019681152AEF920729F090935F06A8
:1013600080935E06089510925F0610925E060895BF
:10137000CF932091410CC0914D06C11163C03091B3
:10138000410C332309F460C0009709F45FC030E0DA
:10139000F89440915E0650915F0660E070E0480F5F
:1013A000591F611D711D8DE0829FF001839FF00D1B
:1013B0001124EE50FB4E41158AEF58076105710567
:1013C00008F05A5F578346838DE0829FF001839F28
:1013D000F00D1124EE50FB4EA0914015B091411537
:1013E000109769F01A96FC93EE931997B487A38728
:1013F000F0934115E0934015128611860CC0F093CE
:101400004115E0934015F093F114E093F014128627
:101410001186148613868DE0829FF001839FF00D64
:101420001124EE50FB4EE085F0E0E15EFD4F80813F
:101430008095909160068923809360060E944D39C3
:10144000789405C0C4E003C0C8E001C0C9E08C2F97
:10145000CF910895EF92FF920F931F93CF93DF9355
:10146000E091F014F091F11460915E0670915F06C6
:1014700020916006A0914015B09141157F0109EEC1
:101480001DEF3097C1F1868197818617970779F50F
:10149000808590E0815E9D4FEC018881282B178329
:1014A0000683EE15FF0549F4EA17FB07E1F0E18436
:1014B000F284E7011C861B861AC043855485EA170F
:1014C000FB0731F4DA011A961C921E9219970FC08D
:1014D00081859285EC015C874B8743855485EA01C1
:1014E0009A87898704C0A0E0B0E0E12CF12C018448
:1014F000F285E02DC6CF20936006F092F114E092C1
:10150000F014B0934115A09340158091520690912C
:101510005306883ED3E09D07C8F010925306109200
:10152000520680915A0690915B06A0915C06B0919C
:101530005D06909355068093540610925A061092B9
:101540005B0610925C0610925D062DC04091560617
:10155000509157066091580670915906452B462BBD
:10156000472BA1F440915A0650915B0660915C06AE
:1015700070915D064F5F5F4F6F4F7F4F40935A06EC
:1015800050935B0660935C0670935D06109256065E
:101590001092570610925806109259060196909391
:1015A000530680935206DF91CF911F910F91FF90C8
:1015B000EF900C94865B10925F0610925E0610927C
:1015C000410C1092370C10924E0610924F0610925A
:1015D0005006109251061092640610926306E8E3DA
:1015E000FCE09FEF88E08E0F91938E13FDCF109259
:1015F0004115109240151092F1141092F0140895B4
:101600008F929F92AF92BF92CF92DF92EF92FF9212
:101610000F931F93CF93DF93FC01E8018091410C5E
:10162000882309F0F8944432510538F48091410C34
:10163000882309F4C2C07894C0C080916306909159
:101640006406840F951F8130984038F08091410CDA
:10165000882309F4B4C07894B2C02223C1F02830A2
:1016600038F08091410C882309F4ABC07894A9C06C
:10167000022F10E0D801A85CB34F8C918F3F71F01E
:101680008091410C882309F49EC078949CC080917D
:10169000410C882309F499C0789497C08091370C45
:1016A0008F5F8093370CC0904E06D0904F06E0902D
:1016B0005006F0905106C0FE0DC0C1FE11C0C2FE22
:1016C00016C0C3FC2BC093E038E0832E912CA12CD4
:1016D000B12C13C090E0812C912C540183940DC047
:1016E00091E032E0832E912CA12CB12C06C092E027
:1016F00084E0882E912CA12CB12C9F5FC828D9287A
:10170000EA28FB28C0924E06D0924F06E09250067F
:10171000F0925106209749F0988307C08091410CC0
:10172000882309F454C0789452C07A018DE0989FC0
:10173000E0011124CE50DB4E798368834091010291
:10174000509102024E0D5F1DBA01645271097B83F4
:101750006A835D834C8328879C93B701CF010E94E5
:10176000C33980916306909164068E0D9F1D9093FE
:1017700064068093630640910102509102024E0D6F
:101780005F1D509302024093010288EE9DEF9F83FC
:101790008E831A8619861C861B86F801E15EFD4F32
:1017A000909160068081892B809360068091410C26
:1017B000882371F0789480E00BC082E009C081E05A
:1017C00007C083E005C084E003C087E001C08AE071
:1017D000DF91CF911F910F91FF90EF90DF90CF900D
:1017E000BF90AF909F908F900895CF93DF932091FB
:1017F000410C222309F0F8946432710538F4809189
:10180000410C882309F459C0789457C0209163068D
:1018100030916406260F371F2130384038F0809110
:10182000410C882309F44BC0789449C0EB01209106
:10183000010230910202260F371FA90144525109BB
:10184000509336154093351530933815209337153E
:1018500010923B1525E02093380CE1ECF2E0259145
:10186000349130933415209333150E94C3398091FD
:101870006306909164068C0F9D1F9093640680937D
:1018800063066091010270910202C60FD71FD093C8
:101890000202C093010288EE9DEF90933A15809367
:1018A0003915809160068160809360068091410CBB
:1018B000882331F0789480E003C082E001C081E0A9
:1018C000DF91CF910895E3E2FCE010821482E2EE12
:1018D000FCE010821782EBE2FCE010821682089591
:1018E000F2DF69DE0C94C238982F803158F08034D2
:1018F00028F0881F8827881F8A5F0895803268F43F
:1019000084E00895843020F0883048F482E008951F
:1019100081E0923028F480E0089585E0089583E026
:1019200008951F93CF93DF939091000280916006FA
:101930008923DADFE82FF0E0E85CF34F10818DE0D7
:10194000189FF0011124EE50FB4EC481D58189818E
:10195000843571F08DEA92E00E9413628A818335AA
:1019600039F08B818B3421F08BE992E00E94136275
:10197000812FDF91CF911F910895CF9360E470E0A4
:101980008CE899E032DFC82F811137C0CADF80931D
:10199000410CE091410C8DE0E89FF0011124EE50E4
:1019A000FB4E8281938190930A09809309099EBF1F
:1019B0008DBF1F910F91FF90EF90DF90CF90BF9060
:1019C000AF909F908F907F906F905F904F903F90DF
:1019D0002F90FF91EF91DF91CF91BF91AF919F91A8
:1019E0008F917F916F915F914F913F912F910F90C8
:1019F0000FBE0F901F90189501C0C1E08C2FCF91A2
:101A00000895DC0180914D0681113FC08091410C09
:101A1000882309F0F894E62FF0E0E85CF34F80812A
:101A20008F3F31F08091410C882379F178942DC05B
:101A30008EEF80838091E20C813051F48091E90C2B
:101A4000813049F49091410C992301F178940895E3
:101A500020E030E002C021E030E087E0829FF0012A
:101A6000839FF00D1124EE51F34F81E080838BE0D2
:101A70008183158263831682ED93FC938091410CE0
:101A8000882321F0789480E0089584E00895FF92FF
:101A90000F931F93CF93DF93FC01F8949091410C27
:101AA0008281981709F483C081818B3009F03FC08F
:101AB0008CE081838091410C8283A091410C8DE068
:101AC0008A9FD0011124AE50BB4E18969C919483EE
:101AD0009381A091410C8A9FD0011124AE50BB4E3E
:101AE00018962C91291708F062C0A091410C8A9F8A
:101AF000D0011124AE50BB4E18969C938091410C9E
:101B0000A381B0E0A85CB34F8C93A481B0E0A15E48
:101B1000BD4F8C918095909160068923E381F0E020
:101B2000E15EFD4F9081892B8093600640C0EF01FC
:101B3000E091410C1DE01E9FF0011124EE50FB4E80
:101B4000F0848D818F5F8D83EF2DF0E0E15EFD4F9E
:101B500000818E81802B8E8300958091600680238A
:101B6000809360060E944D397894F8948091410CDE
:101B70008A83FC828B81F816D0F4E091410C1E9F81
:101B8000F0011124EE50FB4E80878091410CEB81D7
:101B9000F0E0E85CF34F8083809160060823EB81DE
:101BA000F0E0E15EFD4F8081082B009360067894A1
:101BB00080E0DF91CF911F910F91FF900895CF9317
:101BC000DF93FC01F8948091410C9281981719F0F1
:101BD000789489E04DC0A091410C8DE08A9FD0019E
:101BE0001124AE50BB4E1896AC919481A917C9F040
:101BF000B0E0A15EBD4F2C9120953091600623236B
:101C0000A92FB0E0A15EBD4F3C91232B209360062D
:101C1000A091410C8A9FD0011124AE50BB4E189662
:101C20009C93128285818823D1F0EF0186815CDE4E
:101C3000E82FF0E0E15EFD4F8081982F90952E8196
:101C400092239E839D8191509D8390916006892B64
:101C5000809360060E944D39789480E009C09BE033
:101C60009183E381F0E0E85CF34F9EEF90837894FA
:101C7000DF91CF91089590914D06911101C0F89494
:101C8000809171068F5F80937106809171068C330D
:101C9000E9F410927106809172068F5F809372064C
:101CA000809172068C3391F41092720680917306C3
:101CB0008F5F8093730680917306883139F4109298
:101CC000730680916D068F5F80936D06911101C040
:101CD0007894089580914D06811101C0F894109276
:101CE00071061092720610927306811101C07894E9
:101CF000089560917106709172068091730608953F
:101D000060916D0670916E0680916F0690917006DD
:101D1000089540914D06411101C0F89480916C06E0
:101D20008F5F80936C0680916C068C3309F06DC0D8
:101D300010926C0680916B068F5F80936B0680918A
:101D40006B068C3308F461C010926B0680916A06B2
:101D50008F5F80936A0680916A06883108F455C0C7
:101D600010926A06809169068F5F80936906809160
:101D70006806823001F5809166069091670683704F
:101D80009927892BC1F4809166069091670664E6D5
:101D900070E00E94FC68892B51F480916606909156
:101DA000670660E971E00E94FC68892B21F481E0FC
:101DB0008093650602C01092650620916906E09145
:101DC000680630E0F0E0E95DFD4F508180916506E6
:101DD00090E0850F911D82179307BCF491E09093DA
:101DE0006906809168068F5F809368068091680617
:101DF0008D3058F090936806809166069091670642
:101E000001969093670680936606411101C078940D
:101E10000895DC0190914D06911101C0F89427E0DE
:101E2000E6E6F6E001900D922A95E1F7911101C0E6
:101E300078940895FC0180914D06811101C0F894B9
:101E4000209166063091670633832283909168065D
:101E5000918390916906908390916A069683909100
:101E60006B06958390916C069483811101C07894E0
:101E700008951F93CF93DF93DC0180914D0681116C
:101E800062C08091410C882309F0F894209161068A
:101E900030916206EB01C20FD31FC13AD10578F42D
:101EA00080912B0C813091F48091310C813089F438
:101EB0009091410C992309F449C0789447C08091CE
:101EC000410C882309F441C078943FC080E090E041
:101ED00002C081E090E016E0189FF001199FF00D1C
:101EE0001124E55DF34F81E08083C9018E5B934F40
:101EF00011969C938E93D0936206C09361061996B7
:101F00007C936E9318971B961C921E921A97680FDB
:101F1000791F13967C936E93129715969C938E93CC
:101F2000149717969C938E931697B483A38312826B
:101F30001582DA01ED93FC938091410C882331F0F6
:101F4000789480E003C084E001C081E0DF91CF910C
:101F50001F910895DC011396ED91FC9114978091E7
:101F60004D06811101C0F8941386128620813181BB
:101F70003583248337832683811101C0789482E0DE
:101F800008952F923F924F925F926F927F928F921D
:101F90009F92AF92BF92CF92DF92EF92FF920F93F8
:101FA0001F93CF93DF93DC011396CD91DC911497AF
:101FB000F8942A853B85232B81F02E813F818A81ED
:101FC0009B812817390721F4888199819F838E830B
:101FD000EE81FF818081FB01EFC04A015B017C0142
:101FE0000091410C602E712CFDE00F9F80011124A7
:101FF0000E501B4ED8011896CC90FC0182818F5F49
:1020000082838C2D90E09C01215E3D4F6901D901B6
:102010008C919581982B958380959091600689236A
:1020200080936006452B09F44CC08AD9A40160E076
:1020300070E01A012B01280E391E411C511CD201DF
:10204000C10121142AEF32064104510438F09A5F8D
:10205000D80117969C938E93169703C0F801378288
:102060002682A0914015B09141151097A9F01A96BB
:102070001C930E9319978DE0869DF001879DF00DBE
:102080001124EE50FB4EB487A387109341150093A3
:102090004015128611861CC01093411500934015FF
:1020A0001093F1140093F0148DE0869DF001879D4C
:1020B000F00D1124EE50FB4E128611861486138605
:1020C00007C088EE9DEFD80117969C938E931697C4
:1020D0000E944D397894F894892809F45EC08DE007
:1020E000869DF001879DF00D1124EE50FB4E8681F8
:1020F0009781893E9D4F89F4F7018581D6019C9196
:10210000292F282309F449C090958923858382814A
:1021100081508283789486E05CC088EE9DEF97833F
:1021200086832091F0143091F114809140159091A4
:10213000411502171307B1F40817190749F4109253
:102140004115109240151092F1141092F01425C010
:102150000184F285E02DF093F114E093F0141486DD
:1021600013861BC0238534850817190741F4309363
:10217000411520934015F901128611860EC0818504
:102180009285DC011C963C932E931B97818592854A
:102190000384F485E02D928781872E813F818A8197
:1021A0009B812817390721F4888199819F838E8329
:1021B000EE81FF818081F50180838E819F81019670
:1021C0009F838E838A859B8501979B878A877894D6
:1021D00080E0DF91CF911F910F91FF90EF90DF9002
:1021E000CF90BF90AF909F908F907F906F905F90B7
:1021F0004F903F902F900895CF93DF93EC01EB81A8
:10220000FC8120914D06211101C0F89482859385AF
:10221000408551858417950778F4019693878287C6
:1022200024813581828193812817390749F480817F
:1022300091819583848304C021112FC078942DC08F
:10224000A481B5816C938481958101969583848363
:102250008A818823D1F08D8147DBE82FF0E0E15EB1
:10226000FD4F8081982F90952D8192239D839A8197
:1022700091509A8390916006892B8093600680919B
:102280004D06811102C00E944D3980914D06882370
:1022900011F080E003C0789401C081E0DF91CF911C
:1022A0000895982F80914D0681112DC08091410C89
:1022B000882309F0F8948091230C813051F48091A7
:1022C000270C813049F49091410C9923E9F07894DE
:1022D0000895E0E0F0E002C0E1E0F0E0EE0FFF1F63
:1022E000EE0FFF1FED5DF34F81E08083918312823B
:1022F0001382DB01ED93FC938091410C882321F044
:10230000789480E0089584E0089581E08093C60683
:1023100008959093B5068093B40680E008950097E1
:10232000A9F0FC01E60FF71F10821092C50620E20B
:10233000FC01A4E7B6E001900D922A95E1F781E057
:102340009091C606913019F080E0089581E00895DB
:1023500081E008952091B4063091B506232B49F011
:10236000009739F0BC0186EB96E00E948C6B80E010
:10237000089581E008950F931F93CF93DF93FB019E
:10238000C081D181C132D10510F0C0E2D0E0FB01A3
:10239000118210822097E9F0209194062223C9F03F
:1023A0008B01AE0164E976E00E94686BC032D10512
:1023B00059F040E250E04C1B5D0BBE016C56794F6A
:1023C00084E996E00E94686BF801D183C08380E0C5
:1023D00001C081E0DF91CF911F910F9108950F937C
:1023E000E2E0F1E08081877F8083E1E0F1E08081BD
:1023F0008860808304E021E044E250E063E370E021
:1024000080E00E9453660F9108950C94E4660C944A
:10241000EA660F931F93CF93DF93EC018B018091BA
:1024200002018860809302010E94F6660E940267A2
:102430000C0F1D1FC017D10721F089910E9408675A
:10244000F9CF0E94F0660E94FC6682E090E00E9454
:10245000B80980910201877F80930201DF91CF91BB
:102460001F910F910895AB01BC018091661E909160
:10247000671E87DD91E0863009F490E0892F08958A
:102480008091661E9091671E65CDE2E0F1E080814B
:10249000877F80830895E2E0F1E080818860808317
:1024A00008950C940B66A59AFCCFCF93DF93C4EFED
:1024B000D1E00E940B668F3F49F081E090E00E94DE
:1024C000B8092197B1F780E090E002C081E090E088
:1024D000DF91CF910895CF93DF931F921F92CDB7D5
:1024E000DEB7A598E2DF009731F489839A83DBDFBA
:1024F00089819A8102C081E090E00F900F90DF9176
:10250000CF910895FF920F931F93CF93DF93C82F1E
:10251000D42F152F062FF72E87FF09C040E050E07B
:10252000BA0187E3EFDF823008F041C0CF77C111F5
:1025300002C0A59804C0B7DFCEDF892BB9F18C2F7C
:1025400080640E9403668F2D0E940366802F0E9484
:102550000366812F0E9403668D2F0E940366CC23A1
:1025600021F0C83021F081E003C085E901C087E88F
:102570000E940366CC3011F494DF10C0C1110EC06C
:10258000DEE10E940B66C82F813011F0D150C9F7EF
:1025900082E090E00E94B8098C2F09C0CEE10E9431
:1025A0000B6687FF04C0C150D1F701C08FEFDF91E8
:1025B000CF911F910F91FF9008950F931F93CF9389
:1025C000DF93EC018B0184E18093C8060E940B66C7
:1025D0008F3F29F48091C8068111F8CF20C08E3F2B
:1025E000F1F423960E940B66FE01339780830E94CC
:1025F0000B66FE01329780830E940B66FE013197C5
:1026000080830E940B66888304501109249601156B
:10261000110541F746DF45DF81E090E002C080E030
:1026200090E0DF91CF911F910F9108950F931F9329
:10263000CF93DF93EC018C011E5F88810E940366BB
:102640002296FE01319780810E940366C017D10750
:10265000A1F78FEF0E9403668FEF0E9403660E942E
:102660000B66282F2F7181E090E0253011F080E07B
:1026700090E0DF91CF911F910F9108950F931F93D9
:10268000CF93DF93CDB7DEB727970FB6F894DEBFB1
:102690000FBECDBFCE010196BCDB8C814B8150E0DB
:1026A00060E070E095E1440F551F661F771F9A9513
:1026B000D1F7682B8D8190E0A0E0B0E02BE0880F8F
:1026C000991FAA1FBB1F2A95D1F7482B592B6A2B9C
:1026D0007B2B8E8190E0A0E0B0E035E0880F991F61
:1026E000AA1FBB1F3A95D1F7482B592B6A2B7B2B7E
:1026F0008F8190E0A0E0B0E0880F991FAA1FBB1F58
:10270000482B592B6A2B7B2B89819A818C5B9740B4
:10271000A0E0B0E0F9E1880F991FAA1FBB1FFA954E
:10272000D1F78A019B01082B192B2A2B3B2BC901BE
:10273000B80127960FB6F894DEBF0FBECDBFDF916C
:10274000CF911F910F9108958091C70608958091B0
:10275000030208958091030280958170089580930B
:1027600003020895811103C080910302089581E05E
:1027700008950F93CF93DF93EB01BA01A901811163
:1027800037C00023A9F18091030280FD33C08091FE
:10279000C70683FD07C089E0440F551F661F771FDA
:1027A0008A95D1F7013061F481E1ACDE81111AC064
:1027B00060E072E0CE0101DF892BA1F000E012C0E1
:1027C00082E1A0DE81110EC060E072E0CE01F5DE94
:1027D000892B19F0DE5F0150B9F740E050E0BA01F3
:1027E0008CE090DE60DE81E0011105C080E003C076
:1027F00084E001C083E0DF91CF910F910895CF92E3
:10280000DF92EF92FF920F93CF93DF93EB01690179
:102810007A01811153C0002309F450C08091030252
:1028200080FD4EC08091030282FD4CC08091C7069E
:1028300083FD07C099E0CC0CDD1CEE1CFF1C9A95B3
:10284000D1F70130A1F4B701A60188E15BDE88234E
:1028500011F001E02DC029DE892BD9F38EEF0E9403
:102860000366CE01E3DE892B19F100E021C08670FA
:1028700031F0402F50E060E070E087E943DEB701BF
:10288000A60189E13FDE811113C00FDE892B51F0D3
:102890008CEF0E940366CE01C9DE892B19F0DE5F42
:1028A000015099F702DE892BA1F28DEF0E94036699
:1028B000FADD81E0011107C080E005C084E003C0BB
:1028C00083E001C082E0DF91CF910F91FF90EF9004
:1028D000DF90CF900895EF92FF920F931F93CF93C5
:1028E000DF93CDB7DEB760970FB6F894DEBF0FBEAB
:1028F000CDBF811147C1653089F4FA0180818823F9
:1029000031F0813009F03EC1FA01818305C0809128
:10291000030281608093030280E037C1809103024B
:1029200080FD32C17A01862F90E08F30910508F04A
:1029300025C1FC018827EE58FF4F8F4F0C94616929
:10294000CADD892B11F411E01AC1ADDDDEC040E013
:1029500050E0BA0189E0D6DD8111F5CF60E170E089
:10296000CE0101962ADE892B71F399819295969575
:10297000969593708A852985913089F490E0019627
:1029800030E0322F2227820F931FA0E0B0E0EAE070
:10299000880F991FAA1FBB1FEA95D1F7B1C02295D6
:1029A0002695269523704885F4E04F9FA0011124B9
:1029B000420F511D4F5F5F4F2F81237030E0322F48
:1029C0002227330F330F420F531F60E070E09E81C8
:1029D000292F2F709B85991F9927991F920F83701C
:1029E000880F890F87508A019B0104C0000F111FB7
:1029F000221F331F8A95D2F7D901C80181C080E018
:102A000092E0FA019183808380C08091C70640E004
:102A100050E0BA0182FF25C08DE874DD811193CFAB
:102A200040DD60E170E0CE010196C7DD892B09F43D
:102A30008ACF10E336DD1150E9F72B8522952F70F0
:102A400080E190E0A0E0B0E004C0880F991FAA1FC9
:102A5000BB1F2A95D2F7F70180839183A283B383AA
:102A60008EC089E04FDD81116ECF60E170E0CE0154
:102A70000196A3DD892B09F466CF9091C7068B855B
:102A80002C8591FF1FC0221F2227221F022F10E03A
:102A90000F5F1F4F8F73080F111D080F111D8E85BB
:102AA0008295869586958370815002C0000F111F14
:102AB0008A95E2F720E030E0F7010083118322835A
:102AC000338323C0922F937022952695277030E090
:102AD000F8E09F9F200D311D11242F5F3F4F8C7711
:102AE00090E095958795959587950196289FA001EB
:102AF000299F500D389F500D1124CA01A0E0B0E06D
:102B0000F70180839183A283B38310E038C0809162
:102B1000C706FA018083F9CF40E050E0BA0189E0AE
:102B200004C040E050E0BA018AE0ECDC81110BCF38
:102B300060E170E01DC040E050E0BA018AE3E2DCF1
:102B4000811101CF87010C5F1F4F0E940B66F701B7
:102B500081937F01E017F107C1F7D7CF40E050E044
:102B6000BA018DE8CFDC8111EECE9BDC60E470E031
:102B7000C70123DD11E0892B11F0C7CF14E093DCEE
:102B8000812F03C084E001C083E060960FB6F89403
:102B9000DEBF0FBECDBFDF91CF911F910F91FF9090
:102BA000EF9008958091C806882329F08091C80687
:102BB00081508093C8068091CB069091CC060196F7
:102BC0009093CC068093CB0680910302897F8093FB
:102BD00003020895CF93C82FCC2329F08FEF0E94D2
:102BE0000366C150F9CFCF910895DF92EF92FF9223
:102BF0000F931F93CF93DF9300D01F92CDB7DEB713
:102C00008111C8C08091030281FDC1C0A59A9D9A1F
:102C100087E084B983E58CBD8DB58E7F8DBD8EB583
:102C20008DB5A59884E1D6DFA59A80E1D3DF40E099
:102C300050E0BA0180E066DC813009F092C088EE95
:102C400093E09093CA068093C9064AEA51E060E097
:102C500070E088E057DC813009F04DC08E010F5FD5
:102C60001F4F780184E0D82ED00E0E940B66F7012A
:102C700081937F01DE12F9CF8B81813009F071C021
:102C80008C818A3A09F06DC08091C9069091CA067C
:102C9000892B41F48091C9069091CA06892B09F4C9
:102CA00060C016C040E050E060E070E489EA2ADCD1
:102CB000882381F381E090E00E94B8098091C906E1
:102CC0009091CA0601979093CA068093C906DCCFFB
:102CD00040E050E0BA018AE315DC811142C00E9455
:102CE0000B66F80181938F01DE12F9CF898186FD91
:102CF0003AC014E039C040E050E0BA0189EA02DC91
:102D0000823018F011E001E018C012E009EA15C0A5
:102D100040E050E0BA01802FF5DB8823A1F081E08C
:102D200090E00E94B8092091C9063091CA0621504E
:102D300031093093CA062093C9068091C906909143
:102D4000CA06892B29F78091C9069091CA06892B5A
:102D500041F040E052E060E070E080E1D3DB8823A6
:102D600019F010E001C01CE01093C7069CDB8091B5
:102D70000302112349F08E7F809303028CB58C7F70
:102D80008CBD8EB58DB503C08160809303028091A8
:102D9000030201C081E00F900F900F900F90DF9120
:102DA000CF911F910F91FF90EF90DF900895F894CD
:102DB0004091CB065091CC06052E000C660B770B8C
:102DC000FC01408351836283738378940895F8945F
:102DD0007093CC066093CB06789408959093CE06BA
:102DE0008093CD060895E091CD06F091CE06309700
:102DF00009F019940895282FCB01213021F038F0E3
:102E0000223019F008950C94B8670C9450680C9413
:102E10000E67CF93DF93FC01C0A1D1A12496CB0113
:102E2000BA0129E096958795779567952A95D1F708
:102E30000190F081E02D228130E040E050E00E94DE
:102E4000236988819981AA81BB810097A105B10579
:102E5000B1F0281739074A075B0730F0281B390BF8
:102E60004A0B5B0B2896EDCF8C819D81AE81BF8193
:102E7000BC01CD01620F731F841F951F03C060E06A
:102E800070E0CB01DF91CF910895CF93DF939B0149
:102E9000EB012996DC011E964D915D916D917C911F
:102EA0005197452B462B472B09F44CC05296ED9178
:102EB000FC915397DF0180E090E05EE201964D9136
:102EC000403251F0453009F445EE8930910511F456
:102ED00058832196488321968B30910579F7838515
:102EE000D90118968C93478D868D90E0A0E0B0E0D4
:102EF000DC0199278827B42B448D842B458D50E025
:102F0000542F442760E070E0482B592B6A2B7B2B11
:102F1000D9014D935D936D937C931397818D90E0D0
:102F2000982F8827408D842B15969C938E93149709
:102F3000878990E0982F88274689842B17969C9341
:102F40008E9316971882DF91CF910895FC0120810E
:102F5000318121153105B1F0F901BF0141914132B3
:102F600070F04A33D1F7F90141916E177F0751F4A0
:102F7000403341F42E5F3F4FFC013183208380E0DA
:102F800090E008958FEF9FEF0895FB01438D50E08F
:102F9000542F4427928D492B60E070E0833079F400
:102FA000858990E0982F88272489822BA0E0B0E0C3
:102FB000DC0199278827482B592B6A2B7B2BCB01C7
:102FC000BA0108958F929F92AF92BF92CF92DF92F3
:102FD000EF92FF920F93CF93DF93EC0188A899A80B
:102FE000AAA8BBA86C0184E3C80ED11C01E0A5010E
:102FF0009401B601898103DC81112EC01C828CA151
:103000009DA1AEA1BFA1B501A401481B590B6A0B3C
:103010007B0B8C8D9D8DAE8DBF8D481759076A0730
:103020007B0710F080E019C0EB80F12C82E0E816FD
:10303000F104C0F38C8D9D8DAE8DBF8D880E991ED1
:10304000AA1EBB1E01E0A5019401B6018981D7DB50
:1030500081E0E81AF108EACF81E0DF91CF910F918A
:10306000FF90EF90DF90CF90BF90AF909F908F90A8
:103070000895FC0124812111A5CF80E008950F93CC
:10308000CF93DF93EC01F5DF982F81115EC088812B
:10309000833009F051C08D81813009F04DC080E04E
:1030A00092E0BE016C5C7F4FFB019C0111922150AC
:1030B0003040E1F785E5FE01EE5CFD4F80838AEA52
:1030C0003196808382E58CAB8DAB81E68EAB91E44B
:1030D0009FAB22E77B9720833196208331969083A4
:1030E00031968083388929899A898B8931963083F2
:1030F0003196208331969083319680833C852D854F
:103100009E858F85319630833196208331969083CA
:103110003196808388A199A1AAA1BBA19C01AD0190
:103120002F5F3F4F4F4F5F4F28AB39AB4AAB5BAB85
:1031300001E0898164DB1D8240E050E060E089812C
:10314000CADB91E0811101C090E0892FDF91CF911E
:103150000F910895CF92DF92EF92FF920F931F93FA
:10316000CF93DF93EC016A017B0188A999A9AAA9F1
:10317000BBA9481759076A077B07C9F0CE0179DF59
:10318000182F811115C001E0A7019601BE016C5CEA
:103190007F4F8981EEDA882329F011E0CC24CA948C
:1031A000DC2C7601C8AAD9AAEAAAFBAA01C010E0C1
:1031B000812FDF91CF911F910F91FF90EF90DF90C2
:1031C000CF900895CF93DF93EC011C828FEF9FEF98
:1031D000DC0188AB99ABAAABBBABCE01BBDF8111E5
:1031E00050C0FE01ED5CFD4F808190E0982F882754
:1031F00031972081822B85359A4A09F044C0E55CDD
:10320000F14020813197808190E0A0E0B0E0DC01C6
:1032100099278827B22B32972081822B31964081C3
:1032200050E0542F442760E070E0842B952BA62BB0
:10323000B72BBB2786349144A445B10531F17E9666
:1032400080813197408150E060E070E0BA015527FD
:103250004427782B32978081482BC957DF4F8881CC
:1032600090E0982F8827A0E0B0E0482B592B6A2BDC
:103270007B2B772781E0463451446445710531F456
:1032800004C083E003C082E001C080E0DF91CF9101
:1032900008952F923F924F925F926F927F928F92FA
:1032A0009F92AF92BF92CF92DF92EF92FF920F93D5
:1032B0001F93CF93DF93CDB7DEB76D970FB6F8941A
:1032C000DEBF0FBECDBF5C01CB01D42ED5011D9258
:1032D0001C923CDE7C0197FDFEC2FC01EE0FFF1F3D
:1032E000EF52F94F008111810115110509F4F5C262
:1032F000F801828593850E94C432892B09F4EFC2BC
:10330000D5010D931C93F8018081882359F08181A8
:1033100029DA80FD07C0DD2009F4E3C282FFE1C2A3
:103320008AE0E4C2D8011C921196EC928E2D5DDCED
:1033300080FDD9C2DD2011F082FDF2CF40E050E0E7
:10334000BA01C8013FDF813009F057C0FE01319654
:103350007F01F801E350FE4FA801435C5D4F9701E8
:10336000DF0117978C91882301F114968C9160816D
:1033700090E0A0E0B0E04C015D01B62ABF016150D1
:103380007109DB016C9124013501662ABF0162508D
:103390007109DB018C90912C982C8824A12CB12CE4
:1033A00084289528A628B72803C0812C912C540185
:1033B000D9018D929D92AD92BD929D017096E417B8
:1033C000F50771F66E01B1E1CB0ED11CF70141900A
:1033D0005190619071907F01411451046104710416
:1033E00039F0B301A201C801EDDE811102C00FC0A6
:1033F00082E0EC14FD0451F703C0412C512C320142
:10340000833009F472C2882311F08DE06FC2F80195
:10341000E05CFF4F808190E0982F8827D801DF96ED
:103420002C91822B8115924081F73B96C080D12C44
:10343000DC2CCC2431978081C82AC114D10419F026
:10344000E12CF12C1FC0F801E55AFF4F8081319724
:10345000C080D12CE12CF12C7601DD24CC24F82A7B
:1034600032978081A7019601282BDA01C901319694
:10347000C080D12CDC2CCC24E12CF12CC82AD92AF8
:10348000EA2AFB2AD8015C96CD92DD92ED92FC925D
:103490005F97F801EC5BFF4FA081F801A3838FEFEA
:1034A0008A0F823008F0B1CFEF5BFF4F2081298B6C
:1034B000F8012283222309F4A8CF822F90E09C01F7
:1034C0002150310982239323892B09F09ECFEA5B97
:1034D000FF4F808190E0982F8827319720811C0131
:1034E000222AF80131862086C1018F709927892B05
:1034F00009F08BCFE85BFF4F808190E0982F882701
:1035000031972081822B4C01A12CB12C892BD1F435
:103510007096808131978080912CA12CB12C540120
:1035200099248824B82A32978081882A319680810C
:1035300090E0982F8827AC0160E070E0842A952AFB
:10354000A62AB72AF801ED5BFF4FE081F0E03E2F9D
:103550002227C8018E5B9F4FFC018081F901E82B77
:10356000309709F452CFB0E0A70196010E947E691E
:103570006E8B7F8B888F998F9F0140E050E02A8F60
:103580003B8F4C8F5D8FC101E4E096958795EA955E
:10359000E1F7280F391F411D511DDA01C9012E899C
:1035A0003F89488D598D280F391F4A1F5B1F2A8B71
:1035B0003B8B4C8B5D8B82169306A406B50608F4F4
:1035C00024CFC501B401621B730B840B950BE989F1
:1035D0002E2F30E040E050E00E9423692115310594
:1035E0004105510509F411CF263FFFE03F07410592
:1035F000510548F0263F8FEF38074105510530F45B
:1036000092E0998B05C0A1E0A98B02C0B3E0B98B11
:1036100049015A01E2E08E0E911CA11CB11CD80197
:1036200058968D929D92AD92BC925B97F80140A204
:1036300051A262A273A28A8D9B8DAC8DBD8D840D2B
:10364000951DA61DB71D84A395A3A6A3B7A34A895C
:103650005B896C897D89440D551D661D771D44A7C6
:1036600055A766A777A7F989F33059F5232809F0FC
:10367000CCCEF801ED59FF4F20813197808190E049
:10368000A0E0B0E0DC0199278827B22B3297208197
:10369000822B3196408150E0542F442760E070E047
:1036A000842B952BA62BB72BF80180A791A7A2A757
:1036B000B3A772E0880C991CAA1CBB1C7A95D1F7A1
:1036C0002DC0232809F4A1CE2E893F89488D598D1C
:1036D000820F931FA41FB51FF80180A791A7A2A76F
:1036E000B3A7F989F23029F4880C991CAA1CBB1CD9
:1036F00015C0A3E0B0E0A50194010E947E69DC0141
:10370000CB01B695A7959795879521E082229924BC
:10371000AA24BB24880E991EAA1EBB1E3FEF830E4F
:1037200031E0931EA11CB11C89E0B694A794979434
:1037300087948A95D1F7C814D904EA04FB0408F4E5
:1037400064CE8FEF9FEFDC01F801808B918BA28B11
:10375000B38B84879587A687B78780E88583F989A7
:10376000F33009F0A1C0F801EB59FF4F808190E0E0
:10377000982F882731972081822B019709F094C0D8
:10378000B301A2014F5F5F4F6F4F7F4FC801E2DC73
:1037900081118AC0D80115961C92F801ED5CFD4F8D
:1037A000808190E0982F882731972081822B853562
:1037B0009A4A09F079C0F80127A986A990E0A0E00B
:1037C000B0E0DC0199278827B22B24A9822B45A9D8
:1037D00050E0542F442760E070E0842B952BA62BFB
:1037E000B72B82359245A146B14409F05DC0F8017E
:1037F000E55EFD4F20813197808190E0A0E0B0E050
:10380000DC0199278827B22B32972081822B3196B1
:10381000408150E0542F442760E070E0842B952BCA
:10382000A62BB72B82379247A144B146E9F53696CD
:1038300020813197808190E0A0E0B0E0DC01992701
:103840008827B22B32972081822B3196408150E01D
:10385000542F442760E070E0842B952BA62BB72BC8
:10386000F801808B918BA28BB38BED5DFD4F208196
:103870003197808190E0A0E0B0E0DC0199278827B3
:10388000B22B32972081822B3196408150E0542F09
:10389000442760E070E0842B952BA62BB72BF80112
:1038A00084879587A687B787E989D801EC938091AB
:1038B000CF069091D00601969093D0068093CF06C4
:1038C00017969C938E93169754961D921D921D9257
:1038D0001C92579706C08BE009C08CE007C08FE0B0
:1038E00005C080E003C083E001C081E06D960FB6A3
:1038F000F894DEBF0FBECDBFDF91CF911F910F9126
:10390000FF90EF90DF90CF90BF90AF909F908F90FF
:103910007F906F905F904F903F902F900895CF933E
:10392000DF93009711F1DC01ED91FC911197309735
:10393000E1F020812223C9F04681578112962D9112
:103940003C9113974217530781F4EC0182859385CC
:103950000E94C432892B59F0E881F98181810E944B
:10396000B21380FD06C080E005C089E003C08FE08F
:1039700001C083E0DF91CF910895009769F025EFB2
:10398000260F223048F0693039F06F3029F0FC0101
:10399000828593850C94CE3208950F931F93FC017A
:1039A0009A01AB012250310941095109808D918D55
:1039B000A28DB38D0297A109B109281739074A07CB
:1039C0005B0768F4A281B0E00E947E6904A515A59A
:1039D00026A537A5600F711F821F931F03C060E0EB
:1039E00070E0CB011F910F910895AF92BF92CF92DB
:1039F000DF92EF92FF920F931F93CF93DF93EC012F
:103A00006A017B01423051056105710508F4BDC0B2
:103A1000888D998DAA8DBB8D481759076A077B073A
:103A200008F0B3C08881823009F44AC0833009F4B9
:103A30006BC0813009F0A9C08A0116950795040F63
:103A4000151FC801892F992786954CA15DA16EA1EC
:103A50007FA1480F591F611D711DCE017BDB88239B
:103A600021F06FEF7FEFCB0194C058018FEFA81AC0
:103A7000B80A1170FE01E00FF11F14A9C501892FCA
:103A8000992786954CA15DA16EA17FA1480F591F72
:103A9000611D711DCE015EDB8111E3CF81E0B82293
:103AA000CA0DDB1D8CA9612F70E0782BC0FE06C00B
:103AB000B4E076956795BA95E1F723C07F7021C091
:103AC000452F562F672F77278CA19DA1AEA1BFA1AF
:103AD000480F591F6A1F7B1FCE013CDB8111C1CFEC
:103AE000CC0CDD1CEE1CFF1CE894C0F881E0D82251
:103AF000EE24FF24FE01EC0DFD1D64A985A970E0F4
:103B0000782B80E090E045C08CA19DA1AEA1BFA123
:103B1000E7E07695679557954795EA95D1F7480F71
:103B2000591F6A1F7B1FCE0115DB81119ACF82E0DE
:103B3000CC0CDD1CEE1CFF1C8A95D1F78CEFC82243
:103B400081E0D822EE24FF24F601F496EC0FFD1F4D
:103B500022816381862F90E0A0E0B0E0B82FAA27F1
:103B600099278827A22B018110E0102F002720E041
:103B700030E0802B912BA22BB32BCC0DDD1D2CA97B
:103B8000822BBC01CD019F7004C061E070E080E039
:103B900090E0DF91CF911F910F91FF90EF90DF9018
:103BA000CF90BF90AF900895AF92BF92CF92DF9227
:103BB000EF92FF920F931F93CF93DF938C01EB0152
:103BC000DC0115967C936E9314971696CD90DD903C
:103BD000ED90FC901997B1E0CB16D104E104F1040B
:103BE00011F482E087C0DC01ED91FC91808D918D14
:103BF000A28DB38DC816D906EA06FB0690F7C1144C
:103C0000D104E104F104B9F48081833041F480A54A
:103C100091A5A2A5B3A50097A105B10551F4808592
:103C20009185C817D907E8F660A571A582A593A567
:103C300032C06C017D01A280B0E1AB9E5001112425
:103C4000B701A601F80180819181CA15DB0500F159
:103C5000CCDEAB01BC014F3FEFEF5E076E077E0786
:103C600009F447C0423051056105710508F4B9CF28
:103C7000D801ED91FC91808D918DA28DB38D481767
:103C800059076A077B0708F0ACCFCA19DB09DACFFE
:103C90006A017B0182DED8011A96CD92DD92ED9207
:103CA000FC921D97611571058105910509F499CF65
:103CB0009E0144E0369527954A95E1F7DC01CB015A
:103CC000820F931FA11DB11DF80186879787A08BD6
:103CD000B18BCF70DD2755E0CC0FDD1F5A95E1F792
:103CE000E49680819181C80FD91FD38BC28B80E06D
:103CF00001C081E0DF91CF911F910F91FF90EF9074
:103D0000DF90CF90BF90AF900895CF93DF93EC01F9
:103D10006C817D8149DF811118C04E855F8568897E
:103D200079898881998116DA81110FC0EA89FB8926
:103D300090E2DF011D929A95E9F7EA89FB8995EEF9
:103D40009083E881F98191E09483DF91CF91089588
:103D50002F923F924F925F926F927F928F929F929B
:103D6000AF92BF92CF92DF92EF92FF920F931F9389
:103D7000CF93DF9300D01F92CDB7DEB71C016A014D
:103D80007B0128013901423051056105710508F4B4
:103D9000E6C0FC01808D918DA28DB38D4817590727
:103DA0006A077B0708F0DBC08081823009F471C0AC
:103DB000833009F492C0813009F0D1C05A01B69421
:103DC000A794A40EB51EC501892F9927869544A1F5
:103DD00055A166A177A1480F591F611D711DC10131
:103DE000B9D98111BDC04501FFEF8F1A9F0A21E0AB
:103DF000B222A20CB31CA7019601217033274427DD
:103E0000552729833A834B835C83C0FE0BC0D501C1
:103E1000D4968C91282F2F70B0E14B9EC0011124B5
:103E2000822B01C0842DF50184AB81E0D101149671
:103E30008C93149794964D915D916D917C91979789
:103E4000C401892F99278695480F591F611D711D3F
:103E5000C10180D9811184C0B1E09B22F101E80D3C
:103E6000F91D29813A814B815C81232B242B252B41
:103E700041F064E076946794579447946A95D1F73B
:103E800006C024A9207F952D9F70422E492A44AA5E
:103E900061C077276F2D5E2D4D2DF10184A195A175
:103EA000A6A1B7A1480F591F6A1F7B1FC10152D994
:103EB000811156C0CC0CDD1CEE1CFF1CE894C0F830
:103EC000F1E0DF22EE24FF24F101EC0DFD1D44AAF8
:103ED000F101EC0DFD1D55AA3DC0F10184A195A194
:103EE000A6A1B7A137E076956795579547953A957E
:103EF000D1F7480F591F6A1F7B1FC1012BD98111B0
:103F00002FC092E0CC0CDD1CEE1CFF1C9A95D1F763
:103F1000FCEFCF22F1E0DF22EE24FF24F601F4963D
:103F2000E20DF31D438150E060E070E0742F6627DE
:103F300055274427D101AC0DBD1D442755276627C1
:103F4000707F442A552A662A772AD4964C92518249
:103F50006282738291E0D10114969C9301C082E049
:103F60000F900F900F900F90DF91CF911F910F91B5
:103F7000FF90EF90DF90CF90BF90AF909F908F9089
:103F80007F906F905F904F903F902F9008954F9249
:103F90005F926F927F928F929F92AF92BF92CF92D9
:103FA000DF92EF92FF920F931F93CF93DF93EC0179
:103FB0002A013B01411551056105710599F48C8475
:103FC0009D84AE84BF8481149104A104B10459F18D
:103FD000888D998DAA8DBB8D88169906AA06BB0679
:103FE00030F121C002DD6B017C0162307105810579
:103FF000910508F48AC08FEFC816D806E806F806BF
:1040000029F46FEF7FEF8FEF9FEF86C0888D998D3A
:10401000AA8DBB8DC816D906EA06FB0608F47AC03D
:104020005301420104C0812C912C540183947501E9
:1040300064012FEFC21AD20AE20AF20A888D998D22
:10404000AA8DBB8DC816D906EA06FB0668F082E089
:1040500088169104A104B10410F460E057C082E016
:10406000C82ED12CE12CF12CB701A601CE01BDDC6C
:104070008B019C01672B682B692BA1F00F3F8FEF01
:1040800018072807380729F00130110521053105E7
:1040900019F4B801C90140C0C814D904EA04FB04EA
:1040A00041F6DBCF0FEF1FEF2FEF3FE0B701A60187
:1040B000CE014EDE811126C0411451046104710409
:1040C000C9F4CC86DD86EE86FF8688899989AA891F
:1040D000BB898F3F2FEF9207A207B207D9F0019754
:1040E000A109B109888B998BAA8BBB8B8D818160CB
:1040F0008D8310C097018601B301A201CE0128DE95
:104100008823F9F2813009F47CCF61E070E080E02F
:1041100090E002C0B601C701DF91CF911F910F91CE
:10412000FF90EF90DF90CF90BF90AF909F908F90D7
:104130007F906F905F904F9008957F928F929F92A3
:10414000AF92BF92CF92DF92EF92FF920F931F93A5
:10415000CF93DF93EC016B01EC80FD802FEFE21A2F
:10416000F20A11F484E0E2C04E855F85688979899E
:104170004115510561057105A9F387010F701127DC
:104180000115110509F0C0C04F5F5F4F6F4F7F4FA2
:104190004E875F87688B798B4A855B856C857D85CB
:1041A00088819981411551056105710549F4DC014A
:1041B00018968D919C911997E816F90698F6A4C067
:1041C000FC01228130E021503109F701A4E0F6958D
:1041D000E795AA95E1F72E233F23232B09F094C0FE
:1041E00004DC4B015C01623071058105910510F41E
:1041F00082E09CC06F3F7F4F8F4F9F4F11F481E053
:1042000095C088819981DC0158964D915D916D91A1
:104210007C915B9784169506A606B70608F467C0DE
:10422000CD2809F49FCF4A855B856C857D85AFDEFF
:104230004B015C01611571058105910509F475C09B
:10424000613071058105910599F26F3F7F4F8F4F66
:104250009F4FA9F2888199810E9439188111CFCF8F
:10426000E881F981F49680E092E0DF019C011D92E3
:1042700021503040E1F7C880D980B501A401C601C2
:104280008CDBD601D0966D937D938D939C93D397C1
:10429000C12CD12C77247394E881F981828190E03C
:1042A000C816D906C0F47482888199810E94391891
:1042B0008111A5CFE881F98180A991A9A2A9B3A90B
:1042C0000196A11DB11D80AB91ABA2ABB3ABBFEF0B
:1042D000CB1ADB0AE1CF80A991A9A2A9B3A98C19B5
:1042E0009D09A109B10980AB91ABA2ABB3AB8A86A2
:1042F0009B86AC86BD86B501A401888199814DDB82
:104300006E877F87888B998BFD82EC8285E0000F1A
:10431000111F8A95E1F70C5C1F4F88819981080F66
:10432000191F1B8B0A8B80E001C087E0DF91CF91C2
:104330001F910F91FF90EF90DF90CF90BF90AF90C3
:104340009F908F907F9008954F925F926F927F928F
:104350009F92BF92CF92DF92EF92FF920F931F93A3
:10436000CF93DF931F92CDB7DEB72C018B01DB011A
:104370008C918F3211F08C3541F40F5F1F4FF20199
:1043800016821782108611860CC0D201ED91FC9125
:1043900084899589A689B789F20186839783A08746
:1043A000B187D8018C91803218F085E0B82E42C0D8
:1043B00060E070E0C201F8DB282FF201138A128A54
:1043C00011C1D20152968D919C915397FC0130817D
:1043D000332309F4CBC0338533FFBAC060E070E00B
:1043E000C201ABDE282F81110CC0F2014685578532
:1043F00060897189808191810E94AA18282F882361
:1044000001F3D2015496ED91FC91559783852223B7
:1044100009F4AEC0243009F0E5C0982F947085FFF0
:10442000ABC0F2011682178210861186138A128A97
:104430009111A0C098018901D9018C912F5F3F4F44
:104440008F32C9F38C35B9F3F201E488F5884BE07B
:1044500050E060E270E0C7010E94716BD8018C915E
:104460008E3249F0F80180E090E020E030E048E052
:1044700050E0912C30C0D801F70120E030E02F5FF0
:104480003F4F8D918E3231F42330310509F48FC0C6
:104490008193F5CF8F3229F08C3519F0813208F0F5
:1044A00086C0020F131F813210F080E201C084E247
:1044B000F701838748C07F3241F17C3531F17E328C
:1044C00081F44830510509F072C0990C990C88E0CC
:1044D00090E04BE050E02F5F3F4F7191713258F701
:1044E0007EC08417950708F062C077FD60C0C72EB4
:1044F000D12CA0E4B2E06D91662309F45AC0662E77
:10450000712C6C147D04B9F752C0792D60E0892BB1
:1045100009F44DC0F7018081853E09F4B08248302E
:10452000510519F4792D770F770F872F837081301C
:1045300009F460617C70743009F46860020F131F25
:10454000D7011B966C9360E070E0C2012DDB4ACF6F
:1045500054966D917C9155974BE050E029830E94D1
:104560005B6B2981892B09F039CF4BCF24E049CFF0
:1045700082FF05C020E036C09923B9F033C0D201D4
:1045800052966D917C915397FB01838584FF0DC0FA
:10459000ED91FC9180810E94C517D20116966D9312
:1045A0007D938D939C93199745CF25E01BC026E002
:1045B00019C06FEB670F6A3120F4692D6260962E87
:1045C00008C06FE9670F6A3120F4A92DA1609A2E07
:1045D0007052D701A80FB91F7C9301967CCF792D1B
:1045E00064E095CF822F0F90DF91CF911F910F91B3
:1045F000FF90EF90DF90CF90BF909F907F906F9053
:104600005F904F900895CF93DF93EC0184E04E8547
:104610005F85688979894115510561057105E9F062
:10462000888199810E94AA18811119C0EA89FB89A1
:1046300080818823C9F093859F73853E39F09F3030
:1046400029F09F71983011F080E010C060E070E0B8
:10465000CE0173DD8823D9F202C08823A9F31E8618
:104660001F86188A198A02C084E0F9CFDF91CF91A2
:104670000895CF93DF93EC0160E070E095DA81114B
:1046800016C04E855F8568897989888199810E94E5
:10469000AA1881110CC0EA89FB898081853E59F0F6
:1046A000882349F061E070E0CE0147DDE8CF843037
:1046B00001F587E01EC04E855F856889798988810C
:1046C00099810E94AA18811114C0EA89FB8990E29D
:1046D000DF011D929A95E9F7AA89BB89EC89FD89CA
:1046E0009BE001900D929A95E1F7E881F98191E0C4
:1046F0009483DF91CF9108958F929F92AF92BF9252
:10470000CF92DF92EF92FF920F931F93CF93DF939D
:10471000EC016A017B01423051056105710510F41D
:1047200082E04BC0888D998DAA8DBB8D48175907A3
:104730006A077B07A8F7888D998DAA8DBB8DC8164F
:10474000D906EA06FB0650F4B701A601CE014DD901
:104750004B015C01672B682B692B11F480E02DC0A5
:1047600081E088169104A104B104D1F22FEF8216E2
:104770009206A206B20601F100E010E09801B7012E
:10478000A601CE01E5DA811118C088899989AA8924
:10479000BB898F3F2FEF9207A207B20751F0019616
:1047A000A11DB11D888B998BAA8BBB8B8D818160DC
:1047B0008D8375016401BFCF81E0DF91CF911F919F
:1047C0000F91FF90EF90DF90CF90BF90AF909F90B0
:1047D0008F900895BF92CF92DF92EF92FF920F9346
:1047E0001F93CF93DF9300D000D0CDB7DEB79C836B
:1047F0008B837E836D83B42E7A836983CE01019689
:104800000E94A6177C0197FD40C08C01000F111F6C
:10481000F801EF52F94FC080D180C114D10459F092
:10482000F601828593850E94C132892B11F482E0C2
:104830002FC0F6011082EB81FC81309751F48B81FF
:104840009C81F801EF52F94F91838083892B59F4B1
:104850001EC01082BF01665F7F4F8E2D0E94B03256
:10486000892B29F3ECCFF1E0BF1211C040E0BE016B
:104870006B5F7F4FCE0103960E944919182F682F56
:104880008B819C817AD8812F03C08BE001C080E0AE
:1048900026960FB6F894DEBF0FBECDBFDF91CF9145
:1048A0001F910F91FF90EF90DF90CF90BF900895F0
:1048B0002F923F924F925F926F927F928F929F9230
:1048C000AF92BF92CF92DF92EF92FF920F931F931E
:1048D000CF93DF93CDB7DEB7A4970FB6F894DEBFC2
:1048E0000FBECDBF7CA36BA3009709F4DCC0D42E10
:1048F0007C01FC01118210824E71BE016D5D7F4F03
:10490000CE0101960E944919382E8111C5C0CE01F1
:1049100047969E8B8D8B6BA17CA1469715DD0B89ED
:104920001C89811104C00115110509F486E0FD2DD3
:10493000FF712F2E9D2D9C7109F458C0882369F0BA
:10494000843019F4CE01019694DE922D9860292EC0
:104950000B891C89882341F0ADC0F80183858171E2
:1049600009F0A7C0D2FCA1C023FE4AC00E943E139A
:10497000F80166877787808B918B1386148E158E4E
:10498000168E178EC980DA80B801F60180810E94E8
:10499000C5174B015C01F801128E138E148A158A1B
:1049A00081E0F601848381149104A104B10441F1F2
:1049B00040A851A862A873A8B501A401C6019CDE55
:1049C000811178C089819A81B501A40141505109B2
:1049D00061097109FC014487558766877787B301B0
:1049E000A2010E94AA18882359F064C0811162C0F4
:1049F000F801838584FD5BC0D1FE02C080FD59C0F3
:104A000023FE03C0F22DF0622F2EC980DA80F6015A
:104A100080A991A9A2A9B3A9F701828F938FA48F2E
:104A2000B58F178F068F24821582B801F601808119
:104A30000E94C517F70166877787808B918BF801F5
:104A4000878D468D50E060E070E0BA01552744271D
:104A5000782B848D482B058D10E0102F002720E047
:104A600030E0402B512B622B732BF7014287538789
:104A7000648775871682178210861186168A178AB0
:104A8000108E118E11A210A2D182C082F6018681F1
:104A90009781F70193838283632D89819A810E9494
:104AA000BD1C832D09C089E007C088E003C084E0F5
:104AB00001C087E0382EF0CFA4960FB6F894DEBF81
:104AC0000FBECDBFDF91CF911F910F91FF90EF905F
:104AD000DF90CF90BF90AF909F908F907F906F901E
:104AE0005F904F903F902F9008952F923F924F925A
:104AF0005F926F927F928F929F92AF92BF92CF926E
:104B0000DF92EF92FF920F931F93CF93DF93EC010D
:104B10005B016A013901F901118210820E948F1C28
:104B2000182F88819981112329F0612F0E94BD1CC3
:104B3000812F31C16D81662321F00E94BD1C8D81C2
:104B40002AC12C8120FD05C067E00E94BD1C87E0C2
:104B500022C18A859B85AC85BD854E815F81688534
:104B60007985841B950BA60BB70BA60160E070E05E
:104B700084179507A607B707F8F46C011DC0848158
:104B80008111B4C0FE2CEE24FF0CAE0CBF1C8E8134
:104B90009F81A885B9858E0D9F1DA11DB11D8E8396
:104BA0009F83A887B987F301808191818E0D9F1D16
:104BB00091838083CE18DF0888819981C114D10444
:104BC00009F4E5C04E815F81688579858A019B0182
:104BD000117022273327012B022B032B09F0A9C0C8
:104BE000FC011281EFEFE10F8A019B01F9E036959C
:104BF000279517950795FA95D1F71E2F102379F56C
:104C0000411551056105710529F46E857F858889F7
:104C100099890EC028A139A1232B21F0CE010E9431
:104C2000091706C04A895B896C897D890E94F51C39
:104C300028813981623071058105910528F482E06F
:104C40008D8362E0C9011DC06F3FFFEF7F078F07B3
:104C50009F0709F486C06A8B7B8B8C8B9D8B888029
:104C600099804A895B896C897D89C4010E94CD1C29
:104C7000611571058105910541F482E08D8362E043
:104C8000C4010E94BD1C82E086C01B012C01210EC4
:104C9000311C411C511C7601EF2CFF24E694E114D9
:104CA000F10409F442C0F4018281212F30E0A70110
:104CB000420F531F90E08417950718F47C01E21A05
:104CC000F30A0E2DA2019101B501F40181810E9428
:104CD000B913E881F981882309F451CF81E08D83EC
:104CE00061E0CF010E94BD1C81E055C080A991A95F
:104CF000A2A9B3A982199309A409B509A70160E083
:104D000070E084179507A607B70708F03BCFDC01D2
:104D1000BA2FAA27BB0FAA0DBB1DF49680E092E024
:104D200001900D920197E1F72DCF2E8A3F8A488E90
:104D3000598E8E819F81917020E032E0281B390BC3
:104D400076012C153D0508F479014E895F89688D3F
:104D5000798D888199810E94AA18288139818823B8
:104D600029F081E08D8361E0C901BCCF4E815F8174
:104D7000688579855170662777274C5C5F4FB9014C
:104D8000640F751FA701C5010E94686BFECE60E02D
:104D90000E94BD1C80E0DF91CF911F910F91FF9089
:104DA000EF90DF90CF90BF90AF909F908F907F90CB
:104DB0006F905F904F903F902F9008952F923F9269
:104DC0004F925F926F927F928F929F92AF92BF921B
:104DD000CF92DF92EF92FF920F931F93CF93DF93C7
:104DE000EC015B016A011901F901118210820E9434
:104DF0008F1C182F88819981112329F0612F0E941F
:104E0000BD1C812F9AC16D81662321F00E94BD1CBB
:104E10008D8193C12C8121FD05C067E00E94BD1CDE
:104E200087E08BC18E819F81A885B985AC01BD01CA
:104E30004C0D5D1D611D711D481759076A077B07E1
:104E400008F03FC0C12CD12C3CC0D0964D915D9153
:104E50006D917C91D397441955096609770927010B
:104E6000612C712C441555056605770580F4D496A0
:104E7000FA01FE2FEE27FF0FEA0DFB1D80E092E006
:104E800001900D920197E1F7E881F9811482FE2CDF
:104E9000EE24FF0CAE0CBF1C8E819F81A885B985C6
:104EA0008E0D9F1DA11DB11D8E839F83A887B9877D
:104EB000F101808191818E0D9F1D91838083CE1899
:104EC000DF08C114D10409F444C04E815F816885B4
:104ED0007985DB01CA019170AA27BB27892B8A2B10
:104EE0008B2B09F0F1C0E881F981228121502A0140
:104EF0003B0139E076946794579447943A95D1F7FB
:104F0000122F142109F05FC041155105610571058B
:104F100069F46E857F858889998961157105810598
:104F2000910551F540E050E0BA010CC028A139A12B
:104F3000232B21F0CE010E94091706C04A895B8904
:104F40006C897D89CF0123D8611571058105910593
:104F500099F48E819F81A885B9854A855B856C858A
:104F60007D85481759076A077B0708F0DDC08A87E7
:104F70009B87AC87BD87D8C0488159816130710556
:104F80008105910529F422E02D8362E0CA0147C022
:104F90006F3FFFEF7F078F079F0729F421E02D83E5
:104FA00061E0CA0185C06A8B7B8B8C8B9D8B4E84A4
:104FB0005F846888798845284628472821F46E87C9
:104FC0007F87888B998B88819981FC0140A851A8A3
:104FD00062A873A84E895F89688D798D441655063D
:104FE0006606770651F40E943918882331F081E073
:104FF0008D8361E0888199815BC0888099804A892E
:105000005B896C897D89C4010E94CD1C6115710585
:105010008105910541F482E08D8362E0C4010E9424
:10502000BD1C82E08AC02B013C01410E511C611C59
:10503000711C7601EF2CFF24E694E114F10401F1D8
:10504000F4018281212F30E0A701420F531F90E02D
:105050008417950718F47C01E21AF30A0E2DA301B8
:105060009201B501F40181810E94FF13A881B981E9
:10507000882309F4EACE81E08D8361E0CD0118C078
:105080004E815F81688579858A859B85AC85BD85E4
:10509000481759076A077B0798F0C4010E9439181E
:1050A000E881F981882341F081E08D8361E0CF01BF
:1050B0000E94BD1C81E041C040AA51AA62AA73AA05
:1050C0004E8A5F8A688E798E8E819F81917020E0F2
:1050D00032E0281B390B76012C153D0508F47901C7
:1050E0004E895F89688D798D888199810E94AA187F
:1050F00028813981882329F081E08D8361E0C9010D
:10510000D7CF8E819F81A885B9859170AA27BB27AB
:10511000C496A701B501820F931F0E94686BE881B6
:10512000F98131E03483B6CE8C8180628C8360E07B
:10513000888199810E94BD1C80E0DF91CF911F91F1
:105140000F91FF90EF90DF90CF90BF90AF909F9026
:105150008F907F906F905F904F903F902F90089529
:10516000EF92FF920F931F93CF93DF931F921F92A3
:10517000CDB7DEB7FC012281338137FD2DC08C0114
:105180007901FFEFEF1AFF0AFC01E20FF31F6683BC
:105190008DE3E816F104C4F09E012F5F3F4FA70195
:1051A000B8016A5F7F4FF8018081918107DE81E05D
:1051B00090E029813A812E153F0511F480E090E0BE
:1051C000EE24FF24E81AF90AF801F382E2828481CE
:1051D00095810196958384830F900F90DF91CF91F5
:1051E0001F910F91FF90EF9008950F931F93CF930E
:1051F000DF938C010E948F1CC82F811146C0D801FB
:1052000014968C91149785FF40C05A964D915D91EC
:105210006D917C915D978D919C910E94AA18C82FE9
:10522000811133C0F801C68DD78D8B8580628B8745
:1052300082858C8F83858D8F84858E8F85858F8FDA
:1052400086859785A089B1898A8F9B8FCD01AA27F2
:10525000BB278C8B9D8B0E943E136E8B7F8B888F20
:10526000998F1A8A1B8AD80114968C9114978F7D76
:1052700014968C931497ED91FC91119781E084839F
:105280008D919C910E943F18C82F6C2FF80180814E
:1052900091810E94BD1C8C2FDF91CF911F910F91A6
:1052A00008950F931F93CF938C019FDFC82F811117
:1052B0000EC0C8010E948F1CC82F811108C0F801C0
:1052C000808191811182108260E00E94BD1C8C2F30
:1052D000CF911F910F910895EF92FF921F93CF935B
:1052E000DF93CDB7DEB7A4970FB6F894DEBF0FBE3D
:1052F000CDBF9CA38BA340E0BE016D5D7F4FCE016F
:1053000001960E944919182F81112DC0CE01479690
:105310009E8B8D8B6BA17CA1469716D8182F81117F
:105320001FC06B897C89E980FA806115710551F491
:105330008F819885A985BA85F701848B958BA68B7B
:10534000B78B11C0FB01838584FF0CC0F7018081FE
:105350000E94C517F701648B758B868B978B03C0F2
:10536000843009F415E0612F89819A810E94BD1C67
:10537000812FA4960FB6F894DEBF0FBECDBFDF918C
:10538000CF911F91FF90EF9008953F924F925F92BF
:105390006F927F928F929F92AF92BF92CF92DF9245
:1053A000EF92FF920F931F93CF93DF93CDB7DEB7AA
:1053B0002A970FB6F894DEBF0FBECDBF9A878987B4
:1053C0006A017B010E948F1C382EA985BA850D9138
:1053D0001C91882319F0682FC801BCC2E985FA85A1
:1053E0006581662341F0C8010E94BD1CA985BA856C
:1053F00015968C91B2C2E985FA8520A131A12115BB
:10540000310509F420C1FFEFCF16DF06EF06FF06D6
:1054100009F0AAC089010C5F1F4FD9018D919D91A0
:105420000D90BC91A02D8D839E83AF83B887E985B5
:10543000FA8586849784A088B188F2E0CF2ED12C9B
:10544000E12CF12C81149104A104B10409F471C080
:105450002401350119821A821B821C8229813A811A
:105460004B815C812F5F3F4F4F4F5F4F29833A83C2
:105470004B835C83B301A201A985BA858D919C9170
:105480000E94F51CA985BA85ED91FC9111976230B7
:1054900071058105910530F482E015968C9362E0E8
:1054A000CF0113C26F3FBFEF7B078B079B0741F410
:1054B00081E0A985BA8515968C9361E0CF01CAC1B8
:1054C000A30192012F5F3F4F4F4F5F4F2B013C01D4
:1054D000621773078407950709F2B2E0CB0ED11C5F
:1054E000E11CF11C2D813E814F8158852C153D0515
:1054F0004E055F0590F029813A814B815C81D8018E
:105500002D933D934D935C93139714968D929D929A
:10551000AD92BC921797085F1F4F808C918CA28C24
:10552000B38C681579058A059B0518F44B015C015D
:105530008FCFA985BA859096ED91FC919197C08205
:10554000D182E282F3822D813E814F8158852C15D4
:105550003D054E055F0508F4F6C1D8011D921D9268
:105560001D921C921397F1C1E985FA858285938576
:10557000A485B5858C159D05AE05BF0510F46C019D
:105580007D01A985BA851696CD92DD92ED92FC92A9
:105590001997C114D104E104F10409F4D6C126011C
:1055A0003701B1E04B1A510861087108B301A2013B
:1055B00089859A850E940917AB01BC01E985FA85A6
:1055C000428B538B648B758BC8010E94CD1C4B01A1
:1055D0005C01672B682B692B09F470C1F80182818B
:1055E000F1E0DF22EE24FF24CD28CE28CF2809F4D5
:1055F000ACC1B301A201E9E076956795579547954F
:10560000EA95D1F790E00197092E000CAA0BBB0B8D
:10561000482359236A237B23D501C401840F951F96
:10562000A61FB71FE985FA85C688D788E08CF18C5C
:105630008C159D05AE05BF0509F487C1868B978B38
:10564000A08FB18F82C1E985FA8582859385A48573
:10565000B5858C159D05AE05BF0528F4248121FD77
:1056600002C06C017D01A985BA8516964D905D90AA
:105670006D907C901997FD01168217821086118615
:10568000C114D104E104F10421F4C12CD12C760120
:105690002BC1D80112968C90912CA12CB12C39E001
:1056A000880C991CAA1CBB1C3A95D1F741145104D3
:1056B0006104710409F440C0B1E04B1A510861085B
:1056C0007108C701B6016150710981099109A501ED
:1056D00094010E94236929833A834B835C83C3012D
:1056E000B201A50194010E94236989819A81AB814D
:1056F000BC8182179307A407B507F0F08827992784
:10570000DC0188199909AA09BB09482259226A2291
:105710007B22A985BA8516964D925D926D927C92F8
:105720001997C418D508E608F70852964D915D916F
:105730006D917C91559738C0E985FA8546855785E6
:1057400060897189411551056105710539F540E0A0
:1057500050E0BA01C8010E94C71FAB01BC01A98576
:10576000BA858D919C911197413051056105710564
:1057700011F422E076C04F3FBFEF5B076B077B075A
:1057800029F421E0E985FA85258363C0A985BA85D6
:105790001E964D935D936D937C935197E985FA85A1
:1057A000428B538B648B758B4115510561057105D7
:1057B00009F46BCF27C0423051056105710508F42B
:1057C0004DC0FC01408C518C628C738C4415550586
:1057D0006605770508F042C0E985FA85428B538B50
:1057E000648B758B86819781A085B185880D991D05
:1057F000AA1DBB1D86839783A087B187C818D908C7
:10580000EA08FB088C149D04AE04BF04A8F5A98522
:10581000BA8514962C9114978D919C9121FF25C0E7
:105820000E94C71FAB01BC014115510561057105FF
:1058300009F1E985FA85808191814F3FFFEF5F078C
:105840006F077F0709F0B7CF21E0A985BA851596C4
:105850002C9361E00E94BD1C81E07FC022E0A985FD
:10586000BA8515962C9362E030C00E94F51CAB01FE
:10587000BC01DFCF75016401E985FA8586819781D6
:10588000A085B1858C0D9D1DAE1DBF1D86839783A0
:10589000A087B187D701C6019170AA27BB27892BA2
:1058A0008A2B8B2B09F4F1CE00811181C8010E9453
:1058B000CD1C611571058105910559F482E0A9851A
:1058C000BA8515968C9362E0C8010E94BD1C82E0E7
:1058D00044C029E0F694E794D794C7942A95D1F769
:1058E000C60ED71EE81EF91EE985FA8586819781C6
:1058F000A085B185AC01BD01517066277727452B86
:10590000462B472B69F046895789608D718DC416E7
:10591000D506E606F70621F0C68AD78AE08EF18E14
:10592000E985FA8542855385648575854817590749
:105930006A077B0750F482879387A487B5878481A1
:105940008062848302C081E1382E632DA985BA85E7
:105950008D919C910E94BD1C832D2A960FB6F894C0
:10596000DEBF0FBECDBFDF91CF911F910F91FF9092
:10597000EF90DF90CF90BF90AF909F908F907F90EF
:105980006F905F904F903F900895EF92FF920F932A
:105990001F93CF93DF93CDB7DEB760970FB6F89420
:1059A000DEBF0FBECDBF788B6F87009709F44BC069
:1059B0007C0140E0BE01615F7F4FCE010D960E94E9
:1059C0004919182F811135C08D859E85F701918366
:1059D0008083CE010196958B848B6F857889C70172
:1059E0000E94A421182F811133C0F70162897389A5
:1059F0000D851E856115710569F0FB01838584FFA6
:105A000017C0F80180810E94C517F701668377836C
:105A100080879187F80186819781F701938382833C
:105A200060E070E0C7010E94D41D182F843069F433
:105A300015E0F70111821082612F8D859E850E94ED
:105A4000BD1C812F08C089E006C01123A9F3F1CF46
:105A5000843079F7EDCF60960FB6F894DEBF0FBEB5
:105A6000CDBFDF91CF911F910F91FF90EF900895DF
:105A70001F93CF93DF93EC010E948F1C182F81118D
:105A800007C0888199811982188260E00E94BD1C3C
:105A9000812FDF91CF911F910895CF92DF92FF92D6
:105AA0000F931F93CF93DF93CDB7DEB72C970FB62D
:105AB000F894DEBF0FBECDBF8C016B010E948F1C1E
:105AC000F82E811129C0C114D10431F460E070E0D6
:105AD000C8010E94D41D1FC0CE010196F801958B0C
