:100000000C9431100C9452100C9452100C94521009
:100010000C9452100C9452100C9452100C945210D8
:100020000C9452100C9452100C9452100C945210C8
:100030000C9452100C9452100C9452100C945210B8
:100040000C9452100C9452100C9452100C945210A8
:100050000C9452100C9472490C9452100C9452103F
:100060000C9452100C9469850C9452100C945210FC
:100070000C9452100C9452100C9452100C94521078
:100080000C9452100C9452100C9452100C94521068
:100090000C940E860C9452100C9452100C94521026
:1000A0000C9452100C9452100C9452100C94521048
:1000B0000C9452100C9452100C9452100C94521038
:1000C0000C9452100C9452100C9452100C94B38651
:1000D0000C9452100C9452100C9452100C94521018
:1000E0000C94521001250825602566251F261F2621
:1000F0001F261F261F261F26E825ED25F225FC2595
:100100000F261757165716571657165716571657BE
:100110001657165716571657165716571657165777
:100120001657165716571657165716571657165767
:100130001657165716571657165716571657165757
:100140001657165716571657165716571657165747
:10015000165716571657165710571657165716573D
:100160001657165716571657165716571657165727
:100170001657165716571657165716571657165717
:1001800016571657E75403552055BA56165741557A
:10019000045647554F55165716571657805516573C
:1001A000165716571657A755B355B456EA55045661
:1001B0009356B456CC56D65616571657165716574A
:1001C00016571657F554115529552F5537551657AB
:1001D0000456115516575E55665570558A559355F8
:1001E000165798551657AD55BB55E555F5558D56CF
:1001F000AC56BA56C156DC56525B625B725B815B91
:10020000925BA85B0A5D0A5D0A5D0A5D0A5D0A5D94
:100210000A5D0A5DB45B855CED5C015F015F1E5F9A
:100220001E5F595F595F475F475F475F475F475FA3
:10023000475F475F475F595F595F837EB07E807E2F
:10024000B07EB07EB07EB07EB07E467EB07EB07EA8
:10025000B07EB07EB07E497EB07EB07E797E667E16
:10026000B07EB07EA57EE97EE27FE27F047FE27F02
:10027000E27FE27F607F627FE27FE27FE27FE27F78
:10028000427FE27F667FE27FA27F247FBF82768308
:10029000DC83DC83DC83DC838F82DC83FF821C8352
:1002A000DC836E83DC83DC83DC83BA82FE80D182D4
:1002B000DC83AC83DC83DC83BB82BD82536C6565ED
:1002C00070696E6720666F7265766572202E2E2EBD
:1002D00000536C656570696E6720666F7265766540
:1002E00072202E2E2E00536C656570696E67206635
:1002F0006F7265766572202E2E2E0013030A03019D
:10030000035465726D696E616C004D6F6E69746F38
:1003100072730053797374656D2054696D65005470
:1003200065726D696E616C20737461727465640DC1
:100330000A00537461636B206F766572666C6F7729
:10034000210D0A00537461636B206F766572666CD1
:100350006F77210D0A0064035A0349646C652054C9
:1003600061736B004252544F53205665722E2031F8
:100370002E3739006A045F04530447043B043004F9
:10038000240419040A04FF03EF03DF03C203A603D6
:100390009A03940341545A0D0A00415423534B5479
:1003A0005253540D0A0041542B5847415554483D6F
:1003B000312C312C2274696D222C2274696D220D2E
:1003C0000A0041542B434744434F4E543D312C22A5
:1003D0004950222C2274696D2E6272220D0A00414E
:1003E000542B544350434C4F53453D310D0A00416B
:1003F000542B544350434C4F53453D300D0A00415C
:10040000542B43434C4B3F0D0A0041542B4950534E
:1004100054415455533D300D0041542B58494943E4
:100420003F0D0A0041542B584949433D310D0A0004
:10043000415423475052533F0D0A00415423475023
:1004400052533D310D0A00415423475052533D3021
:100450000D0A0041542B584953503D300D0A0041BC
:10046000542B435245473F0D0A0041540D0A004C9E
:10047000696E652025643A20000D0A004C696E659E
:100480002025643A20004C696E652025643A2000DE
:1004900049503A20004C696E652025643A20004896
:1004A0006F73743A20004C696E652025643A200011
:1004B0004C696E652025643A20004C696E652025E4
:1004C000643A20004C696E652025643A200040742F
:1004D000696D65203D20256C750D0A000D0A736558
:1004E0006E64206661696C0D0A004074696D652058
:1004F0003D20256C750D0A000D0A73656E64206F32
:100500006B0D0A004074696D65203D20256C750DEA
:100510000A004074696D65203D20256C750D0A0048
:100520004C696E652025643A20004F4B2040746969
:100530006D65203D20256C750D0A004C696E6520A7
:1005400025643A20004C696E652025643A200040FD
:1005500074696D65203D20256C750D0A000D0A43F8
:100560006F6E6E656374696F6E206661696C656439
:10057000200D0A004074696D65203D20256C750DC5
:100580000A004D6F64656D204750525320636F6EB3
:100590006E656374696F6E206572726F72200D0AEA
:1005A000004074696D65203D20256C750D0A004D75
:1005B0006F64656D204750525320636F6E6E6563A4
:1005C00074696F6E206572726F72200D0A0040743C
:1005D000696D65203D20256C750D0A004D6F6465C1
:1005E0006D204750525320636F6E6E656374696F60
:1005F0006E204F4B200D0A004C696E652025643A31
:1006000020004C696E652025643A20004154235334
:10061000443D312C302C38302C25732C302C302C90
:10062000300D0A0041542353443D312C302C3830D6
:100630002C25732C302C302C300D0A004074696D41
:1006400065203D20256C750D0A004D6F64656D2099
:100650004750525320697320636F6E6E65637465F3
:1006600064200D0A004074696D65203D20256C757D
:100670000D0A004D6F64656D204750525320636F23
:100680006E6E656374696F6E206661696C200D0A19
:10069000004074696D65203D20256C750D0A004D84
:1006A0006F64656D204750525320697320726561F5
:1006B0006479200D0A004074696D65203D20256C29
:1006C000750D0A004D6F64656D20475052532069C7
:1006D000732062757379200D0A004D6F64656D207B
:1006E000496E6974204F4B200D0A004D6F64656D93
:1006F00020496E6974206661696C200D0A000D0A3C
:1007000054435020636C6F7365640D0A004C696E2E
:10071000652025643A200041542353483D310D0A99
:10072000000D0A54435020636F6E6E656374696FE9
:100730006E207061757365640D0A004C696E6520EA
:1007400025643A20002B2B2B004C696E6520256414
:100750003A20004C696E652025643A20000D0A009D
:100760005365727665722049503A20004C696E6577
:100770002025643A200041542351444E533D2573B3
:100780000D0A0041542353434647455854323D31E6
:100790002C302C312C302C300D0A00415423534383
:1007A00046473D312C312C3330302C3130302C3118
:1007B00030302C35300D0A0041542B434744434F11
:1007C0004E543D312C224950222C222573220D0AF1
:1007D0000041545331323D320D0A004154264B3D05
:1007E000300D0A004D6F64656D2073657475700D72
:1007F0000A004D6F64656D20696E6974200D0A00F2
:100800004C696E652025643A20004074696D65204E
:100810003D20256C750D0A00485454502F312E315F
:1008200020323030204F4B0D0A00206279746573FE
:100830002F7365632E0A0D0020627974657320633F
:100840006F70696564207769746820000A0D436FD2
:100850007079696E672066696C650A0D000A0D443F
:10086000657374696E6174696F6E2066696C65206A
:10087000636F756C64206E6F7420626520637265AF
:1008800061746564206F7220616C726561647920A7
:10089000657869737420210A0D000A0D536F757213
:1008A00063652066696C6520646F6573206E6F7484
:1008B00020657869737420210A0D000A0D46696C61
:1008C0006520666F756E6420616E642072656E616E
:1008D0006D656420210A0D004469726563746F724E
:1008E00079206973206E6F7420656D707479206F44
:1008F000722066696C652069732077726974652D52
:1009000070726F7465637465642E0A0D000A0D447D
:10091000656C6574652066696C65206F722064691A
:10092000726563746F72792064656E6965642E0AFE
:100930000D002064656C6574656421200A0D000A51
:100940000D0020776173206E6F742063726561748F
:1009500065642E0A0D0020776173206372656174EF
:100960006564207375636365737366756C6C792E4B
:100970000A0D000A0D4469726563746F7279200074
:1009800020776173206E6F74206372656174656493
:100990002E0A0D000A0D00207761732063726561D5
:1009A000746564207375636365737366756C6C79C5
:1009B0002E0A0D000A0D0020646F6573206E6F749F
:1009C00020657869737420210A0D000A0D4469724C
:1009D0006563746F727920000A0D00206E6F7420B9
:1009E000666F756E642E0A0D000A0D002062797420
:1009F00065732F7365632E0A0D0020627974657329
:100A00002072656164207769746820000A0D206691
:100A1000696C652072656164206572726F722E2048
:100A20000A0D002062797465732E0A0D0066696CE8
:100A3000652073697A653A20000A0D002062797496
:100A400065732066726565200A0D00206973207346
:100A500061666520746F2072656D6F7665210A0D81
:100A60000020556E6B6E6F776E0020534448430034
:100A70002053442076320020534420763100204D0C
:100A80004D4320763300690B4A0B280B050BEF0A08
:100A9000DE0AD30AC70AB30A9A0A206661696C653E
:100AA0006420746F20696E697469616C697A65216C
:100AB0000A0D00206661696C656420746F206D6F9B
:100AC000756E74210A0D0064657465637465642134
:100AD0000A0D006D6F756E746564210A0D00467510
:100AE0006E6374696F6E206661696C65642E004187
:100AF0006C6C20636F6E74656E74732072656D6FBD
:100B00007665642E006E6F742070726573656E7406
:100B1000206F72206E6F7420696E697469616C69F0
:100B20007A656420210A0D00496E76616C69642043
:100B300066696C65206F72206469726563746F7298
:100B400079206E616D652E0A0D0046696C65206F17
:100B500072206469726563746F7279206E6F74209D
:100B6000666F756E642E0A0D000D0A534420636192
:100B700072642000C90BB50BA50B920B850B800B83
:100B80005B25645D003A202564206F662025640D96
:100B90000A004D454D4F52593A202564206F66207A
:100BA00025640A0D000A0D5441534B205354414310
:100BB0004B3A0A0D00435055204C4F41443A2025F2
:100BC000642E256425250A0D00555054494D453A9B
:100BD00020256420642025642068202564206D2061
:100BE000256420730A0D005B0C520C4C0C460C4221
:100BF0000C3D0C380C310C270C1F0C160C0D0C95F1
:100C00000C8E0C860C7C0C730C6C0C630C446563B2
:100C1000656D626572004E6F76656D626572004F3C
:100C200063746F6265720053657074656D6265729E
:100C300000417567757374004A756C79004A756E6A
:100C400065004D617900417072696C004D6172639D
:100C500068004665627275617279004A616E7561FD
:100C600072790053617475726461790046726964C7
:100C70006179005468757273646179005765646EB8
:100C800065736461790054756573646179004D6FB3
:100C90006E6461790053756E646179001F1C1F1EBC
:100CA0001F1E1F1F1E1F1E1F1F1D1F1E1F1E1F1F5B
:100CB0001E1F1E1F00C0C101C30302C2C60607C714
:100CC00005C5C404CC0C0DCD0FCFCE0E0ACACB0B7C
:100CD000C90908C8D81819D91BDBDA1A1EDEDF1FAC
:100CE000DD1D1CDC14D4D515D71716D6D21213D39C
:100CF00011D1D010F03031F133F3F23236F6F7374C
:100D0000F53534F43CFCFD3DFF3F3EFEFA3A3BFB3B
:100D100039F9F83828E8E929EB2B2AEAEE2E2FEFEB
:100D20002DEDEC2CE42425E527E7E62622E2E3235B
:100D3000E12120E0A06061A163A3A26266A6A7678B
:100D4000A56564A46CACAD6DAF6F6EAEAA6A6BABFB
:100D500069A9A86878B8B979BB7B7ABABE7E7FBF2B
:100D60007DBDBC7CB47475B577B7B67672B2B3731B
:100D7000B17170B0509091519353529296565797CB
:100D8000559594549C5C5D9D5F9F9E5E5A9A9B5BBB
:100D900099595898884849894B8B8A4A4E8E8F4F6B
:100DA0008D4D4C8C448485458747468682424383DB
:100DB0004181804000C1814001C0804101C080412B
:100DC00000C1814001C0804100C1814000C181401B
:100DD00001C0804101C0804100C1814000C181400B
:100DE00001C0804100C1814001C0804101C08041FB
:100DF00000C1814001C0804100C1814000C18140EB
:100E000001C0804100C1814001C0804101C08041DA
:100E100000C1814000C1814001C0804101C08041CA
:100E200000C1814001C0804100C1814000C18140BA
:100E300001C0804101C0804100C1814000C18140AA
:100E400001C0804100C1814001C0804101C080419A
:100E500000C1814000C1814001C0804101C080418A
:100E600000C1814001C0804100C1814000C181407A
:100E700001C0804100C1814001C0804101C080416A
:100E800000C1814001C0804100C1814000C181405A
:100E900001C0804101C0804100C1814000C181404A
:100EA00001C0804100C1814001C0804101C080413A
:100EB00000C18140000102030405060708090D0E68
:100EC0000F1011121314151618191A1B1C1D1E1FB2
:100ED00020212223696A6B6C020A121A222A323AF2
:100EE000424A522D000D0A000D0A004D6F6E6974C2
:100EF0006F7273206461746120766563746F723AF7
:100F0000200D0A000D0A000D0A54696D653A000DA6
:100F10000A53697A653A202575000D0A44617461A7
:100F20003A004461746120766563746F723A200DF3
:100F30000A005B25642C25752C000D0A5468726527
:100F4000616420522025752C2072656164206669D9
:100F50006C653A202573200D0A0054696D65207474
:100F60006F2077726974653A20256C75206D730D5A
:100F70000A000D0A4D2025642C2053697A653A2019
:100F800025752C20456E7472792025753A20000D48
:100F90000A4D697373656420656E747269657320A8
:100FA00025640D0A000D0A4D697373656420656E32
:100FB00074726965732025640D0A0077726974651F
:100FC000206661696C65640D0A007772697465203A
:100FD0006661696C65640D0A0054696D6520746F03
:100FE000207265616420736C6176653A20256C75AA
:100FF000206D730D0A00207265616420736C617648
:1010000065202564206F6B0D0A0072656164207392
:101010006C617665202564206661696C65640D0AE3
:10102000007265616420736C6176652025642066BA
:1010300061696C65640D0A0062756666657220748C
:101040006F6F20736D616C6C200D0A0062756666AF
:10105000657220746F6F20736D616C6C200D0A00D7
:101060004C6F6720696E6974206572726F004C6FF7
:101070006720696E6974206572726F3A202564007A
:101080004C6F6720696E6974206572726F3A202513
:1010900064004572726F3A206275696C64696E67AC
:1010A000206461746120766563746F720D0A004577
:1010B00072726F3A206275696C64696E6720646150
:1010C000746120766563746F720D0A000D0A000D5D
:1010D0000A000D0A43757272656E742066696C654C
:1010E0002072656164696E673A20000D0A5072656E
:1010F00076696F75732066696C65207265616469D5
:101100006E673A20000D0A537769746368696E67E9
:101110002066696C652072656164696E672E0D0AD0
:10112000004D6F6E2025752C20656E7472793A2003
:101130002575206F662025752C206661696C6564B5
:1011400020746F2073656E6420256C750D0A002C69
:1011500020746F74616C3A20256C752073202D20EB
:101160006176673A20256C752073004D6F6E2025DF
:10117000752C20656E7472793A202575206F662073
:10118000257500656E74727920696E646578202516
:10119000752C2073697A653A2025752C2077696C47
:1011A0006C2073656E64206E6F773A200D0A000D17
:1011B0000A204D20522025752C207265616420661E
:1011C000696C6520706F7320256C752C200045724A
:1011D000726F3A206E6577206865616465720045BC
:1011E00072726F3A206E657720686561646572007F
:1011F0004572726F3A206F70656E2066696C65206B
:1012000025730D0A004572726F3A206F70656E206B
:1012100066696C652025730D0A004572726F3A206D
:101220006372656174696E67206E65772066696CAC
:101230006520666F722077726974696E67200D0A87
:10124000004572726F3A206372656174696E67203F
:101250006E65772066696C6520666F7220777269AB
:1012600074696E67200D0A004572726F3A207365CB
:101270007474696E6720686561646572206F6620AA
:101280006E65772066696C65200D0A004572726F85
:101290003A2073657474696E67206865616465726D
:1012A000206F66206E65772066696C65200D0A00E8
:1012B0004572726F3A2073657474696E6720746941
:1012C0006D657374616D7020686561646572206F0F
:1012D00066206E65772066696C65200D0A00457290
:1012E000726F3A2073657474696E672074696D65F6
:1012F0007374616D7020686561646572206F66202B
:101300006E65772066696C65200D0A004D6F6E2052
:1013100025642077696C6C20737769746368207426
:101320006F206E65772066696C650D0A000D0A52A4
:10133000656164696E67207468652073616D6520FE
:1013400066696C6520746861742077652072656ECB
:10135000616D656421200D0A000D0A2573207769EF
:101360006C6C2062652072656E616D656420746FBF
:10137000202573200D0A000D0A52656E616D6520EF
:101380006661696C65642C20747279696E67206E81
:101390006577206E616D652E2E2E200D0A000D0AD8
:1013A00052656E616D65206661696C65642C2074A0
:1013B0007279696E67206E6577206E616D652E2E7D
:1013C0002E200D0A000D0A52656E616D6520666162
:1013D000696C65642C20747279696E67206E65771C
:1013E000206E616D652E2E2E200D0A000D0A2573CC
:1013F0002077696C6C2062652072656E616D656432
:1014000020746F202573200D0A000D0A4D6F6E2089
:1014100025642069732073796E63686564200D0A02
:10142000000D0A53796E6368206661696C65642CEF
:101430002077696C6C2074727920616761696E2015
:101440006C61746572200D0A000D0A4D6F6E2025C7
:10145000642077696C6C2062652073796E636865BF
:1014600064200D0A004D202575205720656E6420EC
:1014700040256C752C206469666620256C750D0A04
:10148000004D20257520572073746172742040250B
:101490006C750D0A000D0A5468726561642057204E
:1014A00025752C2074696D65206E6F773A20256C48
:1014B00075200D0A000D0A5468726561642057207A
:1014C00025752C2074696D65723A202575200D0AEA
:1014D0000067707273207365727665720A0D2E0054
:1014E00067707273207365727665720A0D2E0061E3
:1014F00070696B6579200A0D2E006170696B6579E2
:10150000200A0D2E0073696D6F6E206970200A0D20
:101510002E0073696D6F6E206970200A0D2E0073A6
:10152000696D6F6E20736572766572200A0D2E00EC
:1015300073696D6F6E20736572766572200A0D2E69
:10154000006E756D5F6D6F6E69746F726573206F7D
:1015500075206D61696F7220717565202564200AA0
:101560000D2E006E756D5F6D6F6E69746F726573B1
:10157000206F75206D61696F72207175652025641B
:10158000200A0D2E0074616D616E686F00696E74C3
:10159000657276616C6F006E6F6D6500636F646974
:1015A000676F00736C617665004D6F6E69746F7262
:1015B000000D0A00677072735F61706E3A200067F9
:1015C0007072735F61706E006170695F6B65793A0C
:1015D00020006170695F6B65790073696D6F6E5F84
:1015E00069703A200073696D6F6E5F69700073698E
:1015F0006D6F6E5F7365727665723A200073696D08
:101600006F6E5F736572766572006E756D5F6D6F7C
:101610006E69746F7265733A20006E756D5F6D6FE1
:101620006E69746F726573207375706572696F721D
:1016300020616F207375706F727461646F0A0D2E74
:10164000006E756D5F6D6F6E69746F726573207378
:1016500075706572696F7220616F207375706F723B
:101660007461646F0A0D2E006E756D5F6D6F6E692B
:10167000746F72657300436F6E666967000D0A4D83
:101680006F6E69746F722074687265616473207222
:10169000756E6E696E672077697468202575206D98
:1016A0006F6E69746F72732E2E2E200D0A002073D8
:1016B0007461727465640D0A0020737461727465DC
:1016C000640D0A006D6F6462757320736C617665DA
:1016D000206E616F207375706F727461646F200D7E
:1016E0000A006D6F6462757320736C617665206E9D
:1016F000616F207375706F727461646F200D0A00E2
:101700000D0A53696D6F6E20696E6974204F4B0D21
:101710000A000D0A53696D6F6E20696E6974204F5F
:101720004B0D0A000D0A53696D6F6E20696E697466
:10173000206572726F720D0A000D0A53696D6F6E2B
:1017400020696E6974206572726F720D0A00436FB2
:101750006E666967204F4B0D0A00436F6E666967BE
:10176000204F4B0D0A00851775176C170D0A4D6F2A
:101770006E202564000D0A4D6F6E206572726F3AFF
:1017800020256420000D0A436F6E6669672065722C
:10179000726F3A2066616C74616E646F2000474519
:1017A00054202F6D6F6E69746F722F6D756C746934
:1017B000706C652E6A736F6E3F74696D653D256C44
:1017C0007526646174613D5B25735D266170696B8C
:1017D00065793D257320485454502F312E310D0A20
:1017E000486F73743A2025730D0A0D0A0D0A0047DD
:1017F0004554202F6D6F6E69746F722F7365742E50
:101800006A736F6E3F6D6F6E69746F7269643D25A8
:10181000752674696D653D256C7526646174613D3E
:101820002573266170696B65793D25732048545492
:10183000502F312E310D0A486F73743A2025730DE5
:101840000A0D0A0D0A00474554202F74696D652F53
:101850006C6F63616C2E6A736F6E266170696B6565
:10186000793D257320485454502F312E310D0A48AC
:101870006F73743A2025730D0A0D0A0D0A006D6FFF
:1018800064656D206E6F74206F6B000D0A00486FE9
:1018900073746E616D65204950206E6F742072659F
:1018A000736F6C7665642C207573696E6720646550
:1018B0006661756C742049503A2000486F73746EED
:1018C000616D65207265736F6C76656420746F203E
:1018D00049503A2000556E6B6E6F776E20636F6DC6
:1018E0006D616E642100537570706F727465642051
:1018F000636F6D6D616E64733A0048656C70206F44
:101900006620636F6D6D616E6473000D0A207573E0
:101910006167653A0D0A69202D20696E666F200D9A
:101920000A73202D20737461747573200D0A792059
:101930002D2072657374617274206D6F6E69746F9F
:10194000720D0A7A202D2073746F70206D6F6E698E
:10195000746F720D0A72202D207265736574206D8C
:101960006F6E69746F720D0A63202D20636C656160
:1019700072206C6F67730D0A64202D20726561649C
:1019800020696E7075742073656E736F7273200DAD
:101990000A6C202D206C697374200D0A6E202D2096
:1019A0006E756C6C206D6F64656D200D0A74202D52
:1019B0002074696D65200D0A6B202D2073696E639C
:1019C00068200D0A76202D20766572626F7365207F
:1019D0000D0A00566572626F7365206C6576656CE2
:1019E000203D202575200D0A000D0A53656E736F8A
:1019F00072202D206F696C206C6576656C3A20250D
:101A0000750D0A000D0A53656E736F72202D2070DC
:101A1000726573737572652076616C76653A202500
:101A200075000D0A496E70757420706F72743A20DB
:101A30002575004E756C6C206D6F64656D20736547
:101A400074200D0A000D0A4D6F6E69746F722025A7
:101A5000753A200D0A000D0A2D2D2D2D2D2D2D2D21
:101A60002D2D2D2D2D2D2D0D0A000D0A54696D657E
:101A7000206E6F773A20000D0A2D2D2D2D2D2D2D46
:101A80002D2D2D2D2D2D2D2D2D2D2D2D2D2D2D2D86
:101A90002D2D2D2D2D2D2D2D2D2D2D2D2D2D2D2D76
:101AA0002D2D2D2D2D2D2D0D0A00415049204B653A
:101AB000793A20005365727665722049503A2025A4
:101AC000730D0A00536572766572206E616D653A1A
:101AD0002025730D0A002D2D2D2D2D2D2D2D2D2D75
:101AE0002D2D2D2D2D2D2D2D2D2D2D2D2D2D2D2D26
:101AF0002D2D2D2D2D2D2D2D2D2D2D2D2D2D2D2D16
:101B00002D2D2D2D0D0A0057726974696E673A20CC
:101B100025730D0A0052656164696E673A2025736A
:101B20000D0A004176672075706C6F6164207469DE
:101B30006D653A20256C750D0A004C617374207533
:101B4000706C6F61642074696D653A20256C750D49
:101B50000A004C6173742073656E742061743A20BE
:101B6000256C750D0A0053696E632061743A202557
:101B70006C750D0A00546F74616C20747820726566
:101B800074726965733A20256C750D0A00546F7480
:101B9000616C2073656E743A20256C750D0A0054D3
:101BA0006F74616C20726561643A20256C750D0A52
:101BB00000546F74616C20656E74726965733A20AD
:101BC000256C750D0A00546F74616C20777269740E
:101BD00074656E3A20256C750D0A00436F6E666958
:101BE000673A206964203D2025752C207065726954
:101BF0006F64203D2025752C20656E7472792073EA
:101C0000697A65203D202575200D0A004D3A202572
:101C1000752C20436F643A2025752C20536C617617
:101C2000653A2025752C2053696E633A202575206E
:101C30000D0A002D2D2D2D2D2D2D2D2D2D2D2D2D44
:101C40002D2D2D2D2D2D2D2D2D2D2D2D2D2D2D2DC4
:101C50002D2D2D2D2D2D2D2D2D2D2D2D2D2D2D2DB4
:101C60002D0D0A002D2D2D2D2D2D2D2D2D2D2D2D14
:101C70002D2D2D2D2D2D2D2D2D2D2D2D2D2D2D2D94
:101C80002D2D2D2D2D2D2D2D2D2D2D2D2D2D2D2D84
:101C90002D2D0D0A0054696D652073746172746591
:101CA000643A20256C752C2054696D65206E6F7721
:101CB0003A20256C752C20456C61707365643A2060
:101CC000256C7520730D0A002D2D2D2D2D2D2D2DFC
:101CD0002D2D2D2D2D2D2D2D2D2D2D2D2D2D2D2D34
:101CE0002D2D2D2D2D2D2D2D2D2D2D2D2D2D2D2D24
:101CF0002D2D2D2D2D2D0D0A0052657365747469DF
:101D00006E67202E2E2E0D0A005374617274696E58
:101D100067206D6F6E69746F7273202E2E2E0D0A00
:101D20000053746F7070696E67206D6F6E69746FA9
:101D30007273202E2E2E0D0A004D6F6E69746F7215
:101D40002073746F707065640D0A00646576696352
:101D5000652025750D0A0073746172742025752C39
:101D6000206E5F726567732025752C20004D423A06
:101D700020736C6176652025752C2066756E202594
:101D8000752C20000D0A2075736167653A0D0A6194
:101D9000202D2073657420736C6176652061646406
:101DA00072657373200D0A64202D2073657420649E
:101DB000657669636520636F6465200D0A69202D6F
:101DC000207265616420696E707574207265677336
:101DD000200D0A68202D207265616420686F6C6494
:101DE000696E672072656773200D0A70202D207060
:101DF00072696E7420616E73776572200D0A7220AD
:101E00002D20726561642064657669636520726562
:101E10006773200D0A73202D207374617274207211
:101E200065672061646472657373200D0A6E202DEE
:101E3000206E756D206F662072656773200D0A0035
:101E40004D6F64627573206572726F004D6F6462CE
:101E50007573206572726F3A2064657669636520D8
:101E60006E6F7420737570706F7274656421000DED
:101E70000A2075736167653A0D0A69202D20696E25
:101E80006974200D0A6F202D206F70656E200D0A79
:101E900073202D2073656E64200D0A72202D207230
:101EA000656365697665200D0A63202D20636C6F7C
:101EB0007365200D0A61202D20696E69742C206FD6
:101EC00070656E2C2073656E64200D0A65202D20D0
:101ED000736572766572200D0A64202D20646E731E
:101EE000200D0A74202D2074696D65200D0A76205E
:101EF0002D2076657273696F6E200D0A004D6F6438
:101F0000656D20697320627573790D0A004D6F64E9
:101F1000656D2069732069646C650D0A004745543E
:101F2000202F20485454502F312E310D0A486F7302
:101F3000743A25730D0A0D0A0D0A00474554202FE7
:101F400020485454502F312E310D0A486F73743A83
:101F500025730D0A0D0A0D0A002074696D656F75F1
:101F600074203D2025750D0A005354444F555420CC
:101F70003D20000A0D00436F6E74726F6C204D6F30
:101F80006E69746F7200436F6E74726F6C204D6F68
:101F90006462757300436F6E74726F6C206D6F6452
:101FA000656D00536574206F757470757420666F6D
:101FB00072206563686F005072696E7420696E20CC
:101FC0007465726D696E616C00436F70792046694B
:101FD0006C65004D616B65206469720043726561D8
:101FE00074652046696C650052656E616D652046BA
:101FF000696C650052656D6F76652046696C650099
:1020000052656D6F76652053442043617264004DC4
:102010006F756E742053442043617264004368619D
:102020006E676520646972004C6973742066696C20
:10203000657300526561642066696C6500425254A4
:102040004F5320544F50004252544F532056657204
:1020500073696F6E006364696E6F70737578585B37
:10206000000011241FBECFEFD1E2DEBFCDBF00E0E4
:102070000CBF16E0A0E0B2E0EAE1F3E201E00BBF42
:1020800002C007900D92AC37B107D9F720E2ACE758
:10209000B6E001C01D92AA3CB207E1F70E9440875A
:1020A0000C948B910C94000086EE92E00E94697A69
:1020B00061ED72E084E192E00E94B34F8CEB92E01C
:1020C0000E94697A84E00E94088488EC90E07BD1C9
:1020D00084E00E94158488EC90E075D1F3CF0F93D3
:1020E0001F930E94328420D40E94FD8330D00E942E
:1020F000B65FEBEFF2E06591749100E010E027E04D
:1021000040E450E08EE291E1A6D28111CDDFEDEF07
:10211000F2E06591749100E010E021E040E054E0CD
:1021200082EA92E798D28111F1CFEFEFF2E0659168
:10213000749122E040E052E087E591E18CD2811178
:10214000E5CF3FD48111FFCF1F910F9108950E94D9
:102150004D2281E008958F929F92AF92BF92DF92BD
:10216000EF92FF920F931F93CF93DF9300D0CDB7E1
:10217000DEB75A0179016B838A830E9463222BE8C0
:1021800036E041E85DE06B818A810E94EC5A01965D
:1021900019F40FEF1FEF4CC069E87DE08EE796E081
:1021A0000E94D05D0196A9F3F0928606E092850622
:1021B000E02EF12CF0928806E092870610928A06B3
:1021C0001092890685E896E00E94235B8C01803599
:1021D0009105F8F6D0909206809093069090940620
:1021E00082E090E0F0D06D2D70E0C4010E94672283
:1021F0008AE090E0E8D06AE070E0CE0101960E94AB
:1022000091228823A9F089810E94E75D8C0197FDC6
:10221000C0CF892B81F7B701C5010E94AE5E01E0F6
:1022200010E0892B11F400E010E0119501951109DF
:102230000E94185B0E949F220E946522C8010F9095
:102240000F900F90DF91CF911F910F91FF90EF9022
:10225000DF90BF90AF909F908F9008959CE088E1B1
:102260000FB6F894A895809360000FBE909360001D
:1022700055D500E010E0C0E0D0E0A8958AE090E0FD
:10228000A2D02A96C83E83E0D80770F018D565D54D
:102290000E94047A0F5F1F4F00318EE0180711F47F
:1022A00000E010E0C0E0D0E00E943326E6CF04E07A
:1022B00021E044E250E063E370E080E00E94838428
:1022C00088E395E80E947C2781E897E20E94EE7AF5
:1022D00086E796E00E94DB7B80E796E00E94DB7B4E
:1022E0008AE696E00E94DB7B84E696E00E94DB7B38
:1022F0008EE596E00E94DB7B88E596E00E94DB7B22
:1023000082E596E00E94DB7B8CE496E00E94DB7B1A
:1023100086E496E00E94DB7B80E496E00E94DB7B13
:102320008AE396E00E94DB7B84E396E00E94DB7BFD
:102330008EE296E00E94DB7B88E296E00E94DB7BE7
:1023400082E296E00E94DB7B8CE196E00E94DB7BE0
:1023500086E196E00E94DB7B0E94367A8FE193E073
:102360000E94697A0E94387A0E94027BFDCF41E088
:1023700050E060E070E040939E0650939F066093AB
:10238000A0067093A10683B7816083BF889583B749
:102390008E7F83BFF0CF8091A6069091A706089507
:1023A0008091A6069091A706019681152AEF9207C3
:1023B00029F09093A7068093A60608951092A70689
:1023C0001092A6060895CF932091F70DC09195061F
:1023D000C11163C03091F70D332309F460C0009739
:1023E00009F45FC030E0F8944091A6065091A7062A
:1023F00060E070E0480F591F611D711D8DE0829FE4
:10240000F001839FF00D1124E855F94E41158AEF34
:1024100058076105710508F05A5F578346838DE0C0
:10242000829FF001839FF00D1124E855F94EA09191
:10243000E916B091EA16109769F01A96FC93EE939C
:102440001997B487A387F093EA16E093E9161286EA
:1024500011860CC0F093EA16E093E916F093A716E4
:10246000E093A61612861186148613868DE0829F4D
:10247000F001839FF00D1124E855F94EE085F0E05E
:10248000E35EFD4F808180959091A806892380931B
:10249000A8060E94F349789405C0C4E003C0C8E0D0
:1024A00001C0C9E08C2FCF910895EF92FF920F9356
:1024B0001F93CF93DF93E091A616F091A71660913A
:1024C000A6067091A7062091A806A091E916B091E2
:1024D000EA167F0109EE1DEF3097C1F186819781E1
:1024E0008617970779F5808590E0835E9D4FEC0114
:1024F0008881282B17830683EE15FF0549F4EA1718
:10250000FB07E1F0E184F284E7011C861B861AC018
:1025100043855485EA17FB0731F4DA011A961C92B9
:102520001E9219970FC081859285EC015C874B87BD
:1025300043855485EA019A87898704C0A0E0B0E00A
:10254000E12CF12C0184F285E02DC6CF2093A80662
:10255000F092A716E092A616B093EA16A093E91699
:1025600080919A0690919B06883ED3E09D07C8F023
:1025700010929B0610929A068091A2069091A30653
:10258000A091A406B091A50690939D0680939C0609
:102590001092A2061092A3061092A4061092A5060D
:1025A0002DC040919E0650919F066091A0067091AB
:1025B000A106452B462B472BA1F44091A206509132
:1025C000A3066091A4067091A5064F5F5F4F6F4F01
:1025D0007F4F4093A2065093A3066093A406709386
:1025E000A50610929E0610929F061092A0061092C9
:1025F000A106019690939B0680939A06DF91CF9156
:102600001F910F91FF90EF900C947E721092A7068D
:102610001092A6061092F70D1092ED0D10929606EC
:102620001092970610929806109299061092AC0696
:102630001092AB06EEEEFDE09FEF88E08E0F9193D7
:102640008E13FDCF1092EA161092E9161092A7167B
:102650001092A61608954F925F926F927F928F927A
:102660009F92AF92BF92EF92FF920F931F93CF93DF
:10267000DF93FC018091F70D882309F0F894443230
:10268000510538F48091F70D882309F4B3C078948C
:10269000B1C08091AB069091AC06840F951F81303C
:1026A000984038F08091F70D882309F4A5C07894FC
:1026B000A3C02223C1F0283038F08091F70D882381
:1026C00009F49CC078949AC0E22EF12CD701A25153
:1026D000B24F8C918F3F71F08091F70D882309F4F0
:1026E0008FC078948DC08091F70D882309F48AC03B
:1026F000789488C08091ED0D8F5F8093ED0D809070
:10270000960690909706A0909806B090990680FE45
:102710000BC081FE0FC082FC77C034E0432E512CE9
:10272000612C712C92E00CC0412C512C320143944D
:1027300090E006C082E0482E512C612C712C91E073
:102740009F5F84289528A628B728809296069092A5
:102750009706A0929806B09299060115110511F0FE
:10276000E80198838A013DE0939FE0011124C85558
:10277000D94E798368834091010250910202400F43
:10278000511FBA01645271097B836A835D834C8354
:1027900028879C93B801CF010E94694A8091AB06BB
:1027A0009091AC06800F911F9093AC068093AB067E
:1027B0004091010250910202040F151F1093020272
:1027C0000093010288EE9DEF9F838E831A861986FF
:1027D0001C861B86F701E35EFD4F9091A806808161
:1027E000892B8093A8068091F70D882399F078941F
:1027F00080E010C082E00EC081E00CC083E00AC01F
:1028000084E008C087E006C08091F70D882309F0B6
:1028100078948AE0DF91CF911F910F91FF90EF9014
:10282000BF90AF909F908F907F906F905F904F90F0
:102830000895CF93DF932091F70D222309F0F894A8
:102840006432710538F48091F70D882309F459C07A
:10285000789457C02091AB063091AC06260F371FF5
:102860002130384038F08091F70D882309F44BC0AF
:10287000789449C0EB012091010230910202260FA9
:10288000371FA901445251095093DF164093DE16B9
:102890003093E1162093E0161092E41624E0209382
:1028A000EE0DE8E5F3E0259134913093DD162093A9
:1028B000DC160E94694A8091AB069091AC068C0FA1
:1028C0009D1F9093AC068093AB06609101027091BE
:1028D0000202C60FD71FD0930202C093010288EEF6
:1028E0009DEF9093E3168093E2168091A806816095
:1028F0008093A8068091F70D882331F0789480E0CA
:1029000003C082E001C081E0DF91CF910895E9ED3D
:10291000FDE010821482E8E9FEE010821782E1EE09
:10292000FDE0108216820895F2DF70DE0C94684993
:10293000982F803158F0803428F0881F8827881F0E
:102940008A5F0895803268F484E00895843020F02E
:10295000883048F482E0089581E0923028F480E0E5
:10296000089585E0089583E008951F93CF93DF9342
:10297000909100028091A8068923DADFE82FF0E029
:10298000E251F24F10818DE0189FF0011124E855BB
:10299000F94EC481D5818981843571F084E493E056
:1029A0000E94697A8A81833539F08B818B3421F0DA
:1029B00082E393E00E94697A812FDF91CF911F918A
:1029C0000895CF9360E370E087EB91E132DFC82F89
:1029D000811137C0CADF8093F70DE091F70D8DE0CC
:1029E000E89FF0011124E855F94E8281938190937C
:1029F0008909809388099EBF8DBF1F910F91FF9019
:102A0000EF90DF90CF90BF90AF909F908F907F908E
:102A10006F905F904F903F902F90FF91EF91DF91DB
:102A2000CF91BF91AF919F918F917F916F915F9166
:102A30004F913F912F910F900FBE0F901F901895BF
:102A400001C0C1E08C2FCF910895DC0180919506E3
:102A500081113FC08091F70D882309F0F894E62F8B
:102A6000F0E0E251F24F80818F3F31F08091F70D1D
:102A7000882379F178942DC08EEF80838091980E11
:102A8000813051F480919F0E813049F49091F70D7F
:102A9000992301F17894089520E030E002C021E00C
:102AA00030E087E0829FF001839FF00D1124E8560B
:102AB000F14F81E080838BE08183158263831682EE
:102AC000ED93FC938091F70D882321F0789480E0BA
:102AD000089584E00895FF920F931F93CF93DF939F
:102AE000FC01F8949091F70D8281981709F483C046
:102AF00081818B3009F03FC08CE081838091F70D9C
:102B00008283A091F70D8DE08A9FD0011124A855F2
:102B1000B94E18969C9194839381A091F70D8A9F4A
:102B2000D0011124A855B94E18962C91291708F0F8
:102B300062C0A091F70D8A9FD0011124A855B94E0B
:102B400018969C938091F70DA381B0E0A251B24FEB
:102B50008C93A481B0E0A35EBD4F8C918095909141
:102B6000A8068923E381F0E0E35EFD4F9081892B85
:102B70008093A80640C0EF01E091F70D1DE01E9F75
:102B8000F0011124E855F94EF0848D818F5F8D831B
:102B9000EF2DF0E0E35EFD4F00818E81802B8E8370
:102BA00000958091A80680238093A8060E94F3498F
:102BB0007894F8948091F70D8A83FC828B81F816C3
:102BC000D0F4E091F70D1E9FF0011124E855F94E65
:102BD00080878091F70DEB81F0E0E251F24F808326
:102BE0008091A8060823EB81F0E0E35EFD4F808131
:102BF000082B0093A806789480E0DF91CF911F9175
:102C00000F91FF900895CF93DF93FC01F89480918A
:102C1000F70D9281981719F0789489E04DC0A09132
:102C2000F70D8DE08A9FD0011124A855B94E189652
:102C3000AC919481A917C9F0B0E0A35EBD4F2C916F
:102C400020953091A8062323A92FB0E0A35EBD4FA5
:102C50003C91232B2093A806A091F70D8A9FD001C9
:102C60001124A855B94E18969C9312828581882309
:102C7000D1F0EF0186815CDEE82FF0E0E35EFD4FEE
:102C80008081982F90952E8192239E839D819150D3
:102C90009D839091A806892B8093A8060E94F349F2
:102CA000789480E009C09BE09183E381F0E0E251F9
:102CB000F24F9EEF90837894DF91CF910895909199
:102CC0009506911101C0F8948091B9068F5F8093A9
:102CD000B9068091B9068C33E9F41092B906809157
:102CE000BA068F5F8093BA068091BA068C3391F44E
:102CF0001092BA068091BB068F5F8093BB068091CD
:102D0000BB06883139F41092BB068091B5068F5FFF
:102D10008093B506911101C078940895809195062D
:102D2000811101C0F8941092B9061092BA0610925F
:102D3000BB06811101C0789408956091B906709125
:102D4000BA068091BB0608956091B5067091B606EB
:102D50008091B7069091B80608954091950641116B
:102D600001C0F8948091B4068F5F8093B40680917F
:102D7000B4068C3309F06DC01092B4068091B3068E
:102D80008F5F8093B3068091B3068C3308F461C0E3
:102D90001092B3068091B2068F5F8093B206809145
:102DA000B206883108F455C01092B2068091B1067F
:102DB0008F5F8093B1068091B006823001F58091DB
:102DC000AE069091AF0683709927892BC1F480914C
:102DD000AE069091AF0664E670E00E945487892B9E
:102DE00051F48091AE069091AF0660E971E00E94C7
:102DF0005487892B21F481E08093AD0602C01092A4
:102E0000AD062091B106E091B00630E0F0E0EB5D58
:102E1000FD4F50818091AD0690E0850F911D821786
:102E20009307BCF491E09093B1068091B0068F5F58
:102E30008093B0068091B0068D3058F09093B00624
:102E40008091AE069091AF0601969093AF06809365
:102E5000AE06411101C078940895DC019091950669
:102E6000911101C0F89427E0EEEAF6E001900D928E
:102E70002A95E1F7911101C078940895FC018091A1
:102E80009506811101C0F8942091AE063091AF06ED
:102E9000338322839091B00691839091B106908301
:102EA0009091B20696839091B30695839091B40663
:102EB0009483811101C0789408951F93CF93DF9379
:102EC000DC0180919506811162C08091F70D882305
:102ED00009F0F8942091A9063091AA06EB01C20FDF
:102EE000D31FC13AD10578F48091E10D813091F47E
:102EF0008091E70D813089F49091F70D992309F4C1
:102F000049C0789447C08091F70D882309F441C0E7
:102F100078943FC080E090E002C081E090E016E04D
:102F2000189FF001199FF00D1124EF51F24F81E02D
:102F30008083C9018850924F11969C938E93D093B1
:102F4000AA06C093A90619967C936E9318971B96B0
:102F50001C921E921A97680F791F13967C936E939A
:102F6000129715969C938E93149717969C938E9315
:102F70001697B483A38312821582DA01ED93FC9332
:102F80008091F70D882331F0789480E003C084E0CD
:102F900001C081E0DF91CF911F910895DC0113966C
:102FA000ED91FC91149780919506811101C0F894E0
:102FB00013861286208131813583248337832683CB
:102FC000811101C0789482E008952F923F924F9230
:102FD0005F926F927F928F929F92AF92BF92CF92A9
:102FE000DF92EF92FF920F931F93CF93DF93DC0159
:102FF0001396CD91DC911497F8942A853B85232B69
:1030000081F02E813F818A819B812817390721F425
:10301000888199819F838E83EE81FF818081FB016E
:10302000EFC04A015B017C010091F70D602E712C0D
:10303000FDE00F9F800111240855194ED801189604
:10304000CC90FC0182818F5F82838C2D90E09C016B
:10305000235E3D4F6901D9018C919581982B958311
:1030600080959091A80689238093A806452B09F4A2
:103070004CC091D9A40160E070E01A012B01280E28
:10308000391E411C511CD201C10121142AEF320604
:103090004104510438F09A5FD80117969C938E939F
:1030A000169703C0F80137822682A091E916B091E5
:1030B000EA161097A9F01A961C930E9319978DE0B3
:1030C000869DF001879DF00D1124E855F94EB487D7
:1030D000A3871093EA160093E916128611861CC086
:1030E0001093EA160093E9161093A7160093A616FC
:1030F0008DE0869DF001879DF00D1124E855F94E75
:10310000128611861486138607C088EE9DEFD801BB
:1031100017969C938E9316970E94F3497894F8948F
:10312000892809F45EC08DE0869DF001879DF00D31
:103130001124E855F94E86819781893E9D4F89F487
:10314000F7018581D6019C91292F282309F449C0D4
:10315000909589238583828181508283789486E04B
:103160005CC088EE9DEF978386832091A6163091F0
:10317000A7168091E9169091EA1602171307B1F489
:103180000817190749F41092EA161092E9161092DE
:10319000A7161092A61625C00184F285E02DF093A3
:1031A000A716E093A616148613861BC023853485C4
:1031B0000817190741F43093EA162093E916F9012C
:1031C000128611860EC081859285DC011C963C9387
:1031D0002E931B97818592850384F485E02D928739
:1031E00081872E813F818A819B812817390721F4AD
:1031F000888199819F838E83EE81FF818081F50193
:1032000080838E819F8101969F838E838A859B8593
:1032100001979B878A87789480E0DF91CF911F91F7
:103220000F91FF90EF90DF90CF90BF90AF909F9065
:103230008F907F906F905F904F903F902F90089568
:10324000CF93DF93EC01EB81FC8120919506211156
:1032500001C0F89482859385408551858417950730
:1032600078F40196938782872481358182819381C6
:103270002817390749F4808191819583848304C09C
:1032800021112FC078942DC0A481B5816C938481C5
:1032900095810196958384838A818823D1F08D81DD
:1032A00047DBE82FF0E0E35EFD4F8081982F90959B
:1032B0002D8192239D839A8191509A839091A806A3
:1032C000892B8093A80680919506811102C00E94E7
:1032D000F34980919506882311F080E003C078942B
:1032E00001C081E0DF91CF910895982F80919506DC
:1032F00081112DC08091F70D882309F0F8948091F9
:10330000D90D813051F48091DD0D813049F49091D7
:10331000F70D9923E9F078940895E0E0F0E002C019
:10332000E1E0F0E0EE0FFF1FEE0FFF1FE752F24F5C
:1033300081E08083918312821382DB01ED93FC9301
:103340008091F70D882321F0789480E0089584E03F
:1033500008959093FF068093FE0680E008950097FD
:1033600049F0BC014FE050E081E097E00E941A8AEA
:1033700080E0089581E00895CF93DF931F92CDB749
:10338000DEB74AE050E0BE016F5F7F4F809193202F
:10339000909194201ADE863011F0898101C08FEF60
:1033A0000F90DF91CF910895FF920F931F93CF93CA
:1033B000DF93EC018B01009729F0AB0160E070E036
:1033C0000E94ED89F12CD8DF8F3F49F0209709F05A
:1033D0008993F3940150110902301105A0F78F2D44
:1033E000DF91CF911F910F91FF9008950E94E311FB
:1033F0006FE370E08EEB96E0D7CF0F931F93CF93E0
:10340000DF93FB01C081D181C134D10510F0C0E44C
:10341000D0E0FB0111821082209709F441C0209175
:10342000BE062223E9F18B01AE016EEB76E00E942D
:10343000E489C034D10559F040E450E04C1B5D0BE9
:10344000BE016254794F8EEB96E00E94E489BE0182
:103450008EEF96E08C1B9D0BA7DF8091670A85306D
:10346000D0F08091BE068823B1F083E08F9386E090
:103470008F938AEB94E09F938F931F921F920E94E9
:10348000114F8EEB96E00E94767A0F900F900F907E
:103490000F900F900F90F801D183C08380E001C09E
:1034A00081E0DF91CF911F910F9108956FE370E05C
:1034B0008EEB96E079DF8091670A8530E8F00E9414
:1034C000607A892BC9F08091BE068823A9F01F92EB
:1034D00088E88F9380E098E09F938F931F921F92CC
:1034E0000E94114F0F900F900F900F900F900F9020
:1034F0008EEB96E00C94767A08958091670A853079
:1035000050F00E94607A892B31F0E4E7F3E0859176
:1035100094910E94697AE4E7F3E06591749181E007
:103520000E9497278AE090E00E94E311BFDF80911C
:10353000BE06882369F166E972E08EEB96E00E9490
:10354000348A892B19F562E372E08EEB96E00E94D3
:10355000348A892BE9F08091670A8430C8F00E9490
:103560006B725F934F933F932F938AE098E09F9302
:103570008F931F921F920E94114F8DB79EB708968E
:103580000FB6F8949EBF0FBE8DBF02C081E00895B4
:1035900080E008950F931F93CF93C82F8B01ADDF69
:1035A000811106C0C15029F0C8010E94E311F7CF74
:1035B00081E0CF911F910F9108950F93CF93DF93E7
:1035C00082EF97E00E94697A80911107811109C00A
:1035D00005E020E040E250E063E370E081E00E941B
:1035E000838464E670E083E0D5DF882309F45BC060
:1035F00084EE97E00E94697A6BED77E081E00E94AB
:10360000972754DF61ED77E081E00E9497274EDF36
:10361000EAE7F3E06591749181E00E94972746DF25
:10362000E6E7F3E06591749181E00E9497273EDF21
:1036300086EF9FE19F938F9388EB97E09F938F9303
:103640001F928FE38F93CEEBD6E0DF93CF930E9450
:10365000E88ADF93CF930E94A44EBE0181E00E94CE
:10366000892724DFEEE7F3E06591749181E00E9401
:1036700097271CDF6BE977E081E00E94972716DF30
:1036800063E877E081E00E94972710DF81E0809374
:1036900011078DB79EB70A960FB6F8949EBF0FBE5E
:1036A0008DBF80E001C081E0DF91CF910F9108953F
:1036B00064E670E083E06EDF91E0811190E0892F95
:1036C0000895DF92EF92FF920F931F93CF93DF93B2
:1036D000CFEFC80FDCEE03E517E08AEFD82E99E4B0
:1036E000E92E97E0F92E6DE372E081E00E948927D0
:1036F00084E690E07BDE8091670A8330B8F08091A9
:10370000BE06882399F081E08F93DF931F930F9378
:103710001F921F920E94114F8EEB96E00E94767AC4
:103720000F900F900F900F900F900F9069E472E040
:103730008EEB96E00E94348A892B99F565E572E05C
:103740008EEB96E00E94348A892B41F1CC2351F113
:1037500061E672E081E00E94892784EF91E046DE15
:103760008091670A811102C0C150BDCF8091BE0611
:103770008823D1F381E08F93DF92FF92EF921F9223
:103780001F920E94114F8EEB96E00E94767A0F9066
:103790000F900F900F900F900F90E6CFC111E4CFD4
:1037A00001C0C1E08C2FDF91CF911F910F91FF904D
:1037B000EF90DF9008952F923F924F925F926F9219
:1037C0007F928F929F92AF92BF92CF92DF92EF92B1
:1037D000FF920F931F93CF93DF93EC01762E672E0A
:1037E000892B11F481E098C083E06BDF8823D1F34B
:1037F00095E0C92ED12C26E7A22E27E0B22E0EEBA3
:1038000016E03324339433E2232E4CE6842E47E033
:10381000942EDF93CF93BF92AF921F928FE38F933B
:103820001F930F930E94E88A1F930F930E94A44E48
:103830006EEB76E081E00E9489278DB79EB70A96ED
:103840000FB6F8949EBF0FBE8DBF88EEE82E83E0C2
:10385000F82E8AE090E0CADD8091BE06882391F0C0
:103860003F922F929F928F921F921F920E94114F10
:103870008EEB96E00E94767A0F900F900F900F904B
:103880000F900F9060E772E08EEB96E00E94348A12
:10389000892B31F091E0C91AD10809F0BACFA2CF33
:1038A000BE018EEB96E00E94348A2C01892B71F1C7
:1038B00080E697E00E94697A6CE270E0C2010E94A3
:1038C000FF89BC016E5F7F4FCB01FC010196208117
:1038D0002232D9F7108261157105C1F040E150E044
:1038E000872D962D0E941A8A872D962D38DD6F928E
:1038F0007F920E94A44E8DE597E00E94697A81E054
:10390000809300070F900F9080E006C081E0E81AD6
:10391000F10809F09ECF66CFDF91CF911F910F91F3
:10392000FF90EF90DF90CF90BF90AF909F908F90DF
:103930007F906F905F904F903F902F900895DF920F
:10394000EF92FF920F931F93CF93DF93CDB7DEB724
:10395000C054D1090FB6F894DEBF0FBECDBF13E03F
:1039600002E026E1D22E3BE3E32E37E0F32E84E69D
:1039700090E00E94E31165E477E081E00E949727E0
:1039800084E690E00E94E3118AE090E00E94E31157
:1039900060E470E0CE01019607DD8091670A843013
:1039A000A8F08981882391F00F93DF92FF92EF9224
:1039B0001F921F920E94114FCE0101960E94767AAB
:1039C0000F900F900F900F900F900F9066E972E09C
:1039D000CE0101960E94348A892B49F08091670AB2
:1039E000843050F081E297E00E94697A05C011505E
:1039F00009F0BDCF80E044C013E002E08AE2D82E97
:103A00009DE0E92E97E0F92E67E177E081E00E94E2
:103A100097278AE090E00E94E31160E470E0CE0115
:103A20000196C2DC8091670A8430A8F089818823DE
:103A300091F00F93DF92FF92EF921F921F920E94DC
:103A4000114FCE0101960E94767A0F900F900F9041
:103A50000F900F900F9066E972E0CE0101960E94E0
:103A6000348A892B49F08091670A843040F08EEFC8
:103A700096E00E94697A03C0115031F6BBCF81E015
:103A8000C05CDF4F0FB6F894DEBF0FBECDBFDF9135
:103A9000CF911F910F91FF90EF90DF9008952F929B
:103AA0003F924F925F926F927F928F929F92AF92CE
:103AB000BF92CF92DF92EF92FF920F931F93CF931B
:103AC000DF93CDB7DEB7C154D1090FB6F894DEBF8E
:103AD0000FBECDBF009709F470C22091FE06309151
:103AE000FF06232B09F469C2FB018C01E80FF91FC3
:103AF000319710828091110781111AC05EDD282F45
:103B00008091670A213071F4833008F456C28BEE3D
:103B100096E022962FAF22970E94697A22962FADC7
:103B20002297E9C2833020F08AED96E00E94697AFC
:103B300080911107813009F070C068EE73E083E076
:103B400029DD9091670A811114C0933020F084EC34
:103B500096E00E94697A8091670A843008F42DC249
:103B60000E946B725F934F933F932F9386EB96E087
:103B700072C1933020F08FE996E00E94697A8091BB
:103B8000670A843098F00E946B725F934F933F9363
:103B90002F9381E996E09F938F931F921F920E942B
:103BA000114F0FB6F894DEBF0FBECDBF83E089DDA5
:103BB0009091670A811114C0933020F083E796E05A
:103BC0000E94697A8091670A843008F4F6C10E94E5
:103BD0006B725F934F933F932F9385E696E03BC1C3
:103BE000933020F08AE496E00E94697A8091670A17
:103BF000843098F00E946B725F934F933F932F93A2
:103C00008CE396E09F938F931F921F920E94114F17
:103C10000FB6F894DEBF0FBECDBF33243394AEEBA6
:103C2000EA2EA6E0FA2EB2E02B2E82E0482E86E0A5
:103C3000582E98EF692E95E0792E24E7A22E25E0E4
:103C4000B22E31EA832E35E0932E80910007813029
:103C500039F481E097E09F938F93A4E2B6E00FC020
:103C600061E077E08091FE069091FF06A4DD8091EF
:103C7000FF068F938091FE068F93ACE0B6E0BF9372
:103C8000AF931F928FE38F93FF92EF920E94E88A87
:103C90000FB6F894DEBF0FBECDBF6EEB76E081E0CD
:103CA0000E9489278091670A8330B8F08091BE0610
:103CB000882399F02F9289E78F935F924F921F92FA
:103CC0001F920E94114F8EEB96E00E94767A0F9021
:103CD0000F900F900F900F900F90F8ECCF2ED12CEB
:103CE00084E690E083DB8091670A8330B8F08091AE
:103CF000BE06882399F02F929FE79F937F926F9241
:103D00001F921F920E94114F8EEB96E00E94767ACE
:103D10000F900F900F900F900F900F906BE772E045
:103D20008EEB96E00E94348A892B09F18091670A14
:103D3000833020F08CED95E00E94697A8091670ACB
:103D4000843008F494C00E946B725F934F933F934A
:103D50002F938EEC95E09F938F931F921F920E945A
:103D6000114F0FB6F894DEBF0FBECDBF80C062E327
:103D700072E08EEB96E00E94348A892B29F181E073
:103D8000809311078091670A833020F08FEA95E0D5
:103D90000E94697A8091670A843088F00E946B7271
:103DA0005F934F933F932F939F928F921F921F92F7
:103DB0000E94114F0FB6F894DEBF0FBECDBFF2E0E8
:103DC000F31568F1339441CF63E872E08EEB96E02F
:103DD0000E94348A892B61F181E0809311078091E0
:103DE000670A833020F082E895E00E94697A80912A
:103DF000670A843088F00E946B725F934F933F9301
:103E00002F93BF92AF921F921F920E94114F0FB635
:103E1000F894DEBF0FBECDBF92E0931598F6809167
:103E2000670A833058F08DE595E00E94697A06C0F4
:103E3000A1E0CA1AD10809F053CFF1CF8091670AE7
:103E4000843008F4BAC00E946B725F934F933F9323
:103E50002F938FE495E09F938F931F921F920E9460
:103E6000114F0FB6F894DEBF0FBECDBFA6C0B8018C
:103E700081E00E9489278091670A8330C8F0D801C9
:103E80008C918823A9F082E08F938AEA8F9385E44E
:103E900095E09F938F931F921F920E94114FC8012C
:103EA0000E94767A0F900F900F900F900F900F90C6
:103EB00000ED17E062E0D62E72EBC72EEBE3EE2E9C
:103EC000E5E0FE2E8AE090E091DA8091670A833087
:103ED000B0F08091BE06882391F0DF92CF92FF92DE
:103EE000EF921F921F920E94114F8EEB96E00E945C
:103EF000767A0F900F900F900F900F900F9069E8C7
:103F000072E08EEB96E00E94348A892BC9F0809192
:103F1000670A843008F469C00E946B725F934F9304
:103F20003F932F938AE295E09F938F931F921F9266
:103F30000E94114F0FB6F894DEBF0FBECDBF55C023
:103F40000150110909F0BECF8091670A823020F03C
:103F50008CED94E00E94697A8091670A843098F031
:103F60000E946B725F934F933F932F938EEC94E07C
:103F70009F938F931F921F920E94114F0FB6F89438
:103F8000DEBF0FBECDBF08EE13E032E0D32E43EE0E
:103F9000C42E54ECE52E54E0F52E6FE370E0CE0114
:103FA000019602DA8091670A833048F401501109C2
:103FB000A1F7C5DC81E08093110721E09CC08981D5
:103FC0008823A1F3DF92CF92FF92EF921F921F926C
:103FD0000E94114FCE0101960E94767A0F900F90A9
:103FE0000F900F900F900F90E1CF04EF11E082E05F
:103FF000C82E93ECD92E20E2E22E25E0F22E6FE3BC
:1040000070E0CE010196D0D98091670A8330A8F084
:104010008981882391F0CF92DF92FF92EF921F92D5
:104020001F920E94114FCE0101960E94767A0F9046
:104030000F900F900F900F900F9069E972E0CE01F2
:1040400001960E94348A892B69F08091670A843036
:1040500068F10E946B725F934F933F932F9382E1BD
:1040600095E014C061EA72E0CE0101960E94348AA4
:10407000892BC1F08091670A8430C0F00E946B7276
:104080005F934F933F932F9384E095E09F938F939B
:104090001F921F920E94114F0FB6F894DEBF0FBE01
:1040A000CDBF04C00150110909F0A9CF48DC8091AF
:1040B000670A823020F088EF94E00E94697A80914C
:1040C000670A843098F00E946B725F934F933F931E
:1040D0002F938AEE94E09F938F931F921F920E94DA
:1040E000114F0FB6F894DEBF0FBECDBF1092BD06C4
:1040F0001092BC0620E0822FCF5BDF4F0FB6F89402
:10410000DEBF0FBECDBFDF91CF911F910F91FF900A
:10411000EF90DF90CF90BF90AF909F908F907F9067
:104120006F905F904F903F902F9008958F929F9245
:10413000AF92BF92CF92DF92EF92FF920F931F93B5
:10414000CF93DF93CFEFC80F8EE7C82E83E0D82E32
:10415000D3E09DE2992E00EB14E02CE7A22E23E0A1
:10416000B22E3BE3832E46EAE42E44E0F42EF60121
:104170006591749181E0DBD684E690E037D9809137
:10418000670A8330B0F08091BE06882391F0DF93F8
:104190009F921F930F931F921F920E94114F8EEBBD
:1041A00096E00E94767A0F900F900F900F900F90EC
:1041B0000F9066EA72E08EEB96E00E94348A892BBB
:1041C00091F56FEA72E08EEB96E00E94348A892BBB
:1041D00039F1CC2349F1F5016591749181E0A7D6BD
:1041E00084EF91E003D98091670A811102C0C15028
:1041F000BECF8091BE068823D1F3DF938F92FF92CA
:10420000EF921F921F920E94114F8EEB96E00E9438
:10421000767A0F900F900F900F900F900F90E7CF3E
:10422000C111E5CF01C0C1E08C2FDF91CF911F916B
:104230000F91FF90EF90DF90CF90BF90AF909F9045
:104240008F900895BAC9CF93DF93EB018823B1F023
:104250007093FF066093FE068091670A833080F1B9
:104260008FE994E00E94697A8881882349F183E08C
:104270008F9388E58F9385E994E013C0CB016FD8C5
:104280008091670A8330E0F080E994E00E94697AC7
:1042900088818823A9F083E08F9381E68F9386E855
:1042A00094E09F938F931F921F920E94114FCE0113
:1042B0000E94767A0F900F900F900F900F900F90B2
:1042C00083E034DF91E0813009F490E0892FDF91C1
:1042D000CF910895FC0101900020E9F73197BF01CB
:1042E000681B790BDCCB0F931F93CF93DF931F9247
:1042F0001F92CDB7DEB77A836983009759F18C019D
:10430000BE016F5F7F4F79D881111EC0E981FA81AC
:10431000E00FF11F1082F80180818823A9F083E06B
:104320008F9386E78F938CE794E09F938F931F92F0
:104330001F920E94114FC8010E94767A0F900F9031
:104340000F900F900F900F9089E794E00E94697A88
:1043500080E001C081E00F900F90DF91CF911F911D
:104360000F910895EAE7F3E06591749181E0DFD55C
:104370009DD881E00895CF93C3E0CF938DE88F93CC
:104380008FE694E09F938F931F921F920E94114F8C
:1043900088EB92E00E94767A0F900F900F900F902A
:1043A0000F900F9080911107833011F0C093110787
:1043B000D9DF80E0CF91089581E08093440780E0C9
:1043C0000895909333078093320780E0089581E049
:1043D00008952091320730913307232B49F000973D
:1043E00039F0BC0184E397E00E94138A80E00895CD
:1043F00081E008950097C9F0DB01FC01A80FB91F07
:104400001C92109243078FE1A2E1B7E001900D9258
:104410008A95E1F780E197E20E94E31181E09091B3
:104420004407913019F480E0089581E00895EF92F7
:10443000FF920F931F93CF93DF93FB0100811181B4
:104440000132110510F000E210E0FB011182108230
:1044500001151105D1F0EB017C0180911207882331
:1044600081F068E178E082E197E00E94BE89A801CE
:1044700062E177E0C7010E94E4891092120780E0B0
:1044800001C081E01983088301C081E0DF91CF91F1
:104490001F910F91FF90EF9008950F93E2E0F1E0EC
:1044A0008081877F8083E1E0F1E080818860808384
:1044B00004E021E044E250E063E370E080E00E9429
:1044C00083840F9108950C9414850C941A850F938E
:1044D0001F93CF93DF93EC018B01809102018860E1
:1044E000809302010E9426850E9432850C0F1D1FB9
:1044F000C017D10721F089910E943885F9CF0E9419
:1045000020850E942C8582E090E00E94E31180913A
:104510000201877F80930201DF91CF911F910F915C
:104520000895AB01BC018091992090919A200E943E
:10453000E51791E0863009F490E0892F0895809185
:10454000992090919A200C94CE17E2E0F1E08081BE
:10455000877F80830895E2E0F1E080818860808336
:1045600008950C943B84A59AFCCFCF93DF93C4EFBE
:10457000D1E00E943B848F3F49F081E090E00E94AF
:10458000E3112197B1F780E090E002C081E090E074
:10459000DF91CF910895CF93DF931F921F92CDB7F4
:1045A000DEB7A598E2DF009731F489839A83DBDFD9
:1045B00089819A8102C081E090E00F900F90DF9195
:1045C000CF910895FF920F931F93CF93DF93C82F3E
:1045D000D42F152F062FF72E87FF09C040E050E09B
:1045E000BA0187E3EFDF823008F041C0CF77C11115
:1045F00002C0A59804C0B7DFCEDF892BB9F18C2F9C
:1046000080640E9433848F2D0E943384802F0E9407
:104610003384812F0E9433848D2F0E943384CC23D6
:1046200021F0C83021F081E003C085E901C087E8AE
:104630000E943384CC3011F494DF10C0C1110EC03D
:10464000DEE10E943B84C82F813011F0D150C9F7C0
:1046500082E090E00E94E3118C2F09C0CEE10E941D
:104660003B8487FF04C0C150D1F701C08FEFDF91B9
:10467000CF911F910F91FF9008950F931F93CF93A8
:10468000DF93EC018B0184E1809346070E943B8419
:104690008F3F29F4809146078111F8CF20C08E3FCB
:1046A000F1F423960E943B84FE01339780830E949D
:1046B0003B84FE01329780830E943B84FE01319748
:1046C00080830E943B84888304501109249601153D
:1046D000110541F746DF45DF81E090E002C080E050
:1046E00090E0DF91CF911F910F9108950F931F9349
:1046F000CF93DF93EC018C011E5F88810E9433848D
:104700002296FE01319780810E943384C017D10721
:10471000A1F78FEF0E9433848FEF0E9433840E94B1
:104720003B84282F2F7181E090E0253011F080E04C
:1047300090E0DF91CF911F910F9108950F931F93F8
:10474000CF93DF93CDB7DEB727970FB6F894DEBFD0
:104750000FBECDBFCE0101960E942D178C814B81DB
:1047600050E060E070E095E1440F551F661F771F31
:104770009A95D1F7682B8D8190E0A0E0B0E02BE016
:10478000880F991FAA1FBB1F2A95D1F7482B592BB9
:104790006A2B7B2B8E8190E0A0E0B0E035E0880FA3
:1047A000991FAA1FBB1F3A95D1F7482B592B6A2B8B
:1047B0007B2B8F8190E0A0E0B0E0880F991FAA1FAB
:1047C000BB1F482B592B6A2B7B2B89819A818C5BD1
:1047D0009740A0E0B0E0F9E1880F991FAA1FBB1F26
:1047E000FA95D1F78A019B01082B192B2A2B3B2B19
:1047F000C901B80127960FB6F894DEBF0FBECDBF32
:10480000DF91CF911F910F910895809145070895F1
:10481000809103020895809103028095817008952C
:10482000809303020895811103C0809103020895CB
:1048300081E008950F93CF93DF93EB01BA01A901B3
:10484000811137C00023A9F18091030280FD33C09C
:104850008091450783FD07C089E0440F551F661FFF
:10486000771F8A95D1F7013061F481E1ABDE8111C8
:104870001AC060E072E0CE0100DF892BA1F000E0F9
:1048800012C082E19FDE81110EC060E072E0CE01B5
:10489000F4DE892B19F0DE5F0150B9F740E050E0FB
:1048A000BA018CE08FDE5FDE81E0011105C080E09F
:1048B00003C084E001C083E0DF91CF910F910895A0
:1048C000CF92DF92EF92FF920F93CF93DF93EB01A2
:1048D00069017A01811153C0002309F450C080910D
:1048E000030280FD4EC08091030282FD4CC0809186
:1048F000450783FD07C099E0CC0CDD1CEE1CFF1CB6
:104900009A95D1F70130A1F4B701A60188E15ADEEA
:10491000882311F001E02DC028DE892BD9F38EEF1A
:104920000E943384CE01E2DE892B19F100E021C020
:10493000867031F0402F50E060E070E087E942DEA1
:10494000B701A60189E13EDE811113C00EDE892B7D
:1049500051F08CEF0E943384CE01C8DE892B19F010
:10496000DE5F015099F701DE892BA1F28DEF0E94E5
:104970003384F9DD81E0011107C080E005C084E0E7
:1049800003C083E001C082E0DF91CF910F91FF90DF
:10499000EF90DF90CF900895EF92FF920F931F93C7
:1049A000CF93DF93CDB7DEB760970FB6F894DEBF35
:1049B0000FBECDBF811147C1653089F4FA018081F6
:1049C000882331F0813009F03EC1FA01818305C0AE
:1049D0008091030281608093030280E037C180915F
:1049E000030280FD32C17A01862F90E08F3091055D
:1049F00008F025C1FC018827EE58FF4F8F4F0C941B
:104A0000B987C9DD892B11F411E01AC1ACDDDEC014
:104A100040E050E0BA0189E0D5DD8111F5CF60E1D9
:104A200070E0CE01019629DE892B71F39981929570
:104A30009695969593708A852985913089F490E0B2
:104A4000019630E0322F2227820F931FA0E0B0E0C2
:104A5000EAE0880F991FAA1FBB1FEA95D1F7B1C0E2
:104A600022952695269523704885F4E04F9FA00156
:104A70001124420F511D4F5F5F4F2F81237030E093
:104A8000322F2227330F330F420F531F60E070E0A5
:104A90009E81292F2F709B85991F9927991F920F0F
:104AA0008370880F890F87508A019B0104C0000F13
:104AB000111F221F331F8A95D2F7D901C80181C067
:104AC00080E092E0FA019183808380C08091450765
:104AD00040E050E0BA0182FF25C08DE873DD81110E
:104AE00093CF3FDD60E170E0CE010196C6DD892BFA
:104AF00009F48ACF10E335DD1150E9F72B852295B3
:104B00002F7080E190E0A0E0B0E004C0880F991F12
:104B1000AA1FBB1F2A95D2F7F70180839183A28336
:104B2000B3838EC089E04EDD81116ECF60E170E00D
:104B3000CE010196A2DD892B09F466CF909145073D
:104B40008B852C8591FF1FC0221F2227221F022F39
:104B500010E00F5F1F4F8F73080F111D080F111DFD
:104B60008E858295869586958370815002C0000F50
:104B7000111F8A95E2F720E030E0F70100831183EE
:104B80002283338323C0922F93702295269527701A
:104B900030E0F8E09F9F200D311D11242F5F3F4F23
:104BA0008C7790E095958795959587950196289FA8
:104BB000A001299F500D389F500D1124CA01A0E07B
:104BC000B0E0F70180839183A283B38310E038C003
:104BD00080914507FA018083F9CF40E050E0BA01A7
:104BE00089E004C040E050E0BA018AE0EBDC8111CA
:104BF0000BCF60E170E01DC040E050E0BA018AE3F5
:104C0000E1DC811101CF87010C5F1F4F0E943B84C3
:104C1000F70181937F01E017F107C1F7D7CF40E09B
:104C200050E0BA018DE8CEDC8111EECE9ADC60E472
:104C300070E0C70122DD11E0892B11F0C7CF14E02D
:104C400092DC812F03C084E001C083E060960FB640
:104C5000F894DEBF0FBECDBFDF91CF911F910F91B2
:104C6000FF90EF90089580914607882329F0809166
:104C700046078150809346078091490790914A07E3
:104C8000019690934A078093490780910302897F98
:104C9000809303020895CF93C82FCC2329F08FEF80
:104CA0000E943384C150F9CFCF910895DF92EF92E3
:104CB000FF920F931F93CF93DF9300D01F92CDB736
:104CC000DEB78111C8C08091030281FDC1C0A59AE1
:104CD0009D9A87E084B983E58CBD8DB58E7F8DBDAF
:104CE0008EB58DB5A59884E1D6DFA59A80E1D3DF96
:104CF00040E050E0BA0180E065DC813009F092C00C
:104D000088EE93E090934807809347074AEA51E082
:104D100060E070E088E056DC813009F04DC08E0123
:104D20000F5F1F4F780184E0D82ED00E0E943B8485
:104D3000F70181937F01DE12F9CF8B81813009F079
:104D400071C08C818A3A09F06DC0809147079091BB
:104D50004807892B41F48091470790914807892B98
:104D600009F460C016C040E050E060E070E489EAF9
:104D700029DC882381F381E090E00E94E311809197
:104D800047079091480701979093480780934707FA
:104D9000DCCF40E050E0BA018AE314DC811142C06C
:104DA0000E943B84F80181938F01DE12F9CF898143
:104DB00086FD3AC014E039C040E050E0BA0189EA0B
:104DC00001DC823018F011E001E018C012E009EABD
:104DD00015C040E050E0BA01802FF4DB8823A1F039
:104DE00081E090E00E94E31120914707309148074D
:104DF0002150310930934807209347078091470796
:104E000090914807892B29F780914707909148078F
:104E1000892B41F040E052E060E070E080E1D2DBBD
:104E2000882319F010E001C01CE0109345079BDBBC
:104E300080910302112349F08E7F809303028CB589
:104E40008C7F8CBD8EB58DB503C0816080930302CD
:104E50008091030201C081E00F900F900F900F909E
:104E6000DF91CF911F910F91FF90EF90DF90089508
:104E7000F8944091490750914A07052E000C660BA3
:104E8000770BFC0140835183628373837894089588
:104E9000F89470934A07609349077894089588239B
:104EA00019F0813029F00AC08FB180958170089582
:104EB0007C9B04C07A9B04C081E0089580E0089543
:104EC00082E0089510BA11BA7D9B02C07C990CC093
:104ED0007B9B02C07A9908C0799B02C0789904C074
:104EE00081E080934B07089510924B0708958091BD
:104EF0004B0708958FB1089590934D0780934C0709
:104F00000895E0914C07F0914D07309709F01994FE
:104F10000895282FCB01213021F038F0223019F0EC
:104F200008950C94F6850C949B860C943E85CF9343
:104F3000DF93EB01813059F038F0823069F4CB0116
:104F4000DF91CF910C94A686CB010E945B85CE01A8
:104F5000DF91CF910C940186DF91CF910895CF938B
:104F6000DF93FC01C0A1D1A12496CB01BA0129E0B5
:104F700096958795779567952A95D1F70190F08159
:104F8000E02D228130E040E050E00E947B87888164
:104F90009981AA81BB810097A105B105B1F02817BD
:104FA00039074A075B0730F0281B390B4A0B5B0BAC
:104FB0002896EDCF8C819D81AE81BF81BC01CD0152
:104FC000620F731F841F951F03C060E070E0CB0168
:104FD000DF91CF910895CF93DF939B01EB01299649
:104FE000DC011E964D915D916D917C915197452B01
:104FF000462B472B09F44CC05296ED91FC915397E8
:10500000DF0180E090E05EE201964D91403251F088
:10501000453009F445EE8930910511F45883219605
:10502000488321968B30910579F78385D9011896AD
:105030008C93478D868D90E0A0E0B0E0DC0199274D
:105040008827B42B448D842B458D50E0542F442762
:1050500060E070E0482B592B6A2B7B2BD9014D93D4
:105060005D936D937C931397818D90E0982F8827A3
:10507000408D842B15969C938E931497878990E08E
:10508000982F88274689842B17969C938E93169782
:105090001882DF91CF910895FC0120813181211583
:1050A0003105B1F0F901BF014191413270F04A334D
:1050B000D1F7F90141916E177F0751F4403341F464
:1050C0002E5F3F4FFC013183208380E090E0089504
:1050D0008FEF9FEF0895FB01438D50E0542F44273D
:1050E000928D492B60E070E0833079F4858990E0FF
:1050F000982F88272489822BA0E0B0E0DC01992733
:105100008827482B592B6A2B7B2BCB01BA0108959A
:105110008F929F92AF92BF92CF92DF92EF92FF92C7
:105120000F93CF93DF93EC0188A899A8AAA8BBA8F6
:105130006C0184E3C80ED11C01E0A5019401B60105
:105140008981BEDB81112EC01C828CA19DA1AEA1E4
:10515000BFA1B501A401481B590B6A0B7B0B8C8DB9
:105160009D8DAE8DBF8D481759076A077B0710F0DC
:1051700080E019C0EB80F12C82E0E816F104C0F366
:105180008C8D9D8DAE8DBF8D880E991EAA1EBB1E67
:1051900001E0A5019401B601898192DB81E0E81A62
:1051A000F108EACF81E0DF91CF910F91FF90EF906E
:1051B000DF90CF90BF90AF909F908F900895FC01AB
:1051C00024812111A5CF80E008950F93CF93DF9321
:1051D000EC01F5DF982F81115EC08881833009F0E2
:1051E00051C08D81813009F04DC080E092E0BE0158
:1051F0006C5C7F4FFB019C01119221503040E1F724
:1052000085E5FE01EE5CFD4F80838AEA319680835E
:1052100082E58CAB8DAB81E68EAB91E49FAB22E750
:105220007B972083319620833196908331968083BB
:10523000388929899A898B893196308331962083E0
:1052400031969083319680833C852D859E858F8510
:1052500031963083319620833196908331968083C6
:1052600088A199A1AAA1BBA19C01AD012F5F3F4FCD
:105270004F4F5F4F28AB39AB4AAB5BAB01E0898145
:105280001FDB1D8240E050E060E0898185DB91E01A
:10529000811101C090E0892FDF91CF910F91089586
:1052A000CF92DF92EF92FF920F931F93CF93DF93F2
:1052B000EC016A017B0188A999A9AAA9BBA9481791
:1052C00059076A077B07C9F0CE0179DF182F8111D2
:1052D00015C001E0A7019601BE016C5C7F4F89817A
:1052E000A9DA882329F011E0CC24CA94DC2C7601B9
:1052F000C8AAD9AAEAAAFBAA01C010E0812FDF91AF
:10530000CF911F910F91FF90EF90DF90CF90089574
:10531000CF93DF93EC011C828FEF9FEFDC0188AB12
:1053200099ABAAABBBABCE01BBDF811150C0FE0174
:10533000ED5CFD4F808190E0982F88273197208188
:10534000822B85359A4A09F044C0E55CF140208102
:105350003197808190E0A0E0B0E0DC0199278827B8
:10536000B22B32972081822B3196408150E0542F0E
:10537000442760E070E0842B952BA62BB72BBB272E
:1053800086349144A445B10531F17E9680813197F0
:10539000408150E060E070E0BA0155274427782B47
:1053A00032978081482BC957DF4F888190E0982F32
:1053B0008827A0E0B0E0482B592B6A2B7B2B77275E
:1053C00081E0463451446445710531F404C083E002
:1053D00003C082E001C080E0DF91CF9108952F9259
:1053E0003F924F925F926F927F928F929F92AF9275
:1053F000BF92CF92DF92EF92FF920F931F93CF93C2
:10540000DF93CDB7DEB76D970FB6F894DEBF0FBE52
:10541000CDBF5C01CB01D42ED5011D921C923CDE88
:105420007C0197FDFEC2FC01EE0FFF1FE05BF84F11
:10543000008111810115110509F4F5C2F801828579
:1054400093850E946A43892B09F4EFC2D5010D931D
:105450001C93F8018081882359F08181E4D980FD73
:1054600007C0DD2009F4E3C282FFE1C28AE0E4C2A2
:10547000D8011C921196EC928E2D18DC80FDD9C2B9
:10548000DD2011F082FDF2CF40E050E0BA01C8010A
:105490003FDF813009F057C0FE0131967F01F801EE
:1054A000E350FE4FA801435C5D4F9701DF01179762
:1054B0008C91882301F114968C91608190E0A0E09A
:1054C000B0E04C015D01B62ABF0161507109DB01FA
:1054D0006C9124013501662ABF0162507109DB011C
:1054E0008C90912C982C8824A12CB12C8428952860
:1054F000A628B72803C0812C912C5401D9018D9284
:105500009D92AD92BD929D017096E417F50771F6DC
:105510006E01B1E1CB0ED11CF70141905190619029
:1055200071907F01411451046104710439F0B30199
:10553000A201C801EDDE811102C00FC082E0EC14AF
:10554000FD0451F703C0412C512C3201833009F482
:1055500072C2882311F08DE06FC2F801E05CFF4F4A
:10556000808190E0982F8827D801DF962C91822B9C
:105570008115924081F73B96C080D12CDC2CCC2445
:1055800031978081C82AC114D10419F0E12CF12C83
:105590001FC0F801E55AFF4F80813197C080D12CA0
:1055A000E12CF12C7601DD24CC24F82A329780817D
:1055B000A7019601282BDA01C9013196C080D12CB0
:1055C000DC2CCC24E12CF12CC82AD92AEA2AFB2A8B
:1055D000D8015C96CD92DD92ED92FC925F97F80136
:1055E000EC5BFF4FA081F801A3838FEF8A0F82301D
:1055F00008F0B1CFEF5BFF4F2081298BF8012283A8
:10560000222309F4A8CF822F90E09C012150310978
:1056100082239323892B09F09ECFEA5BFF4F808181
:1056200090E0982F8827319720811C01222AF801C9
:1056300031862086C1018F709927892B09F08BCF85
:10564000E85BFF4F808190E0982F88273197208179
:10565000822B4C01A12CB12C892BD1F47096808126
:1056600031978080912CA12CB12C5401992488244D
:10567000B82A32978081882A3196808190E0982FCD
:105680008827AC0160E070E0842A952AA62AB72A10
:10569000F801ED5BFF4FE081F0E03E2F2227C801CB
:1056A0008E5B9F4FFC018081F901E82B309709F454
:1056B00052CFB0E0A70196010E94D6876E8B7F8BF8
:1056C000888F998F9F0140E050E02A8F3B8F4C8F4D
:1056D0005D8FC101E4E096958795EA95E1F7280F83
:1056E000391F411D511DDA01C9012E893F89488D9D
:1056F000598D280F391F4A1F5B1F2A8B3B8B4C8B00
:105700005D8B82169306A406B50608F424CFC50166
:10571000B401621B730B840B950BE9892E2F30E0CB
:1057200040E050E00E947B8721153105410551057D
:1057300009F411CF263FFFE03F074105510548F02E
:10574000263F8FEF38074105510530F492E0998BE1
:1057500005C0A1E0A98B02C0B3E0B98B49015A0191
:10576000E2E08E0E911CA11CB11CD80158968D92BE
:105770009D92AD92BC925B97F80140A251A262A2A9
:1057800073A28A8D9B8DAC8DBD8D840D951DA61D3C
:10579000B71D84A395A3A6A3B7A34A895B896C8987
:1057A0007D89440D551D661D771D44A755A766A725
:1057B00077A7F989F33059F5232809F0CCCEF80101
:1057C000ED59FF4F20813197808190E0A0E0B0E05B
:1057D000DC0199278827B22B32972081822B3196C2
:1057E000408150E0542F442760E070E0842B952BDB
:1057F000A62BB72BF80180A791A7A2A7B3A772E0A9
:10580000880C991CAA1CBB1C7A95D1F72DC02328A3
:1058100009F4A1CE2E893F89488D598D820F931F9F
:10582000A41FB51FF80180A791A7A2A7B3A7F98964
:10583000F23029F4880C991CAA1CBB1C15C0A3E0EB
:10584000B0E0A50194010E94D687DC01CB01B6959A
:10585000A7959795879521E082229924AA24BB24B5
:10586000880E991EAA1EBB1E3FEF830E31E0931EC9
:10587000A11CB11C89E0B694A794979487948A954B
:10588000D1F7C814D904EA04FB0408F464CE8FEFFE
:105890009FEFDC01F801808B918BA28BB38B848707
:1058A0009587A687B78780E88583F989F33009F063
:1058B000A1C0F801EB59FF4F808190E0982F882715
:1058C00031972081822B019709F094C0B301A20186
:1058D0004F5F5F4F6F4F7F4FC801E2DC81118AC07D
:1058E000D80115961C92F801ED5CFD4F808190E087
:1058F000982F882731972081822B85359A4A09F085
:1059000079C0F80127A986A990E0A0E0B0E0DC0109
:1059100099278827B22B24A9822B45A950E0542F20
:10592000442760E070E0842B952BA62BB72B8235A3
:105930009245A146B14409F05DC0F801E55EFD4F16
:1059400020813197808190E0A0E0B0E0DC019927D0
:105950008827B22B32972081822B3196408150E0EC
:10596000542F442760E070E0842B952BA62BB72B97
:1059700082379247A144B146E9F5369620813197A6
:10598000808190E0A0E0B0E0DC0199278827B22B6D
:1059900032972081822B3196408150E0542F44274A
:1059A00060E070E0842B952BA62BB72BF801808B41
:1059B000918BA28BB38BED5DFD4F20813197808160
:1059C00090E0A0E0B0E0DC0199278827B22B329765
:1059D0002081822B3196408150E0542F442760E093
:1059E00070E0842B952BA62BB72BF8018487958725
:1059F000A687B787E989D801EC9380914E079091EB
:105A00004F07019690934F0780934E0717969C93EC
:105A10008E93169754961D921D921D921C92579725
:105A200006C08BE009C08CE007C08FE005C080E0B5
:105A300003C083E001C081E06D960FB6F894DEBF2D
:105A40000FBECDBFDF91CF911F910F91FF90EF90CF
:105A5000DF90CF90BF90AF909F908F907F906F908E
:105A60005F904F903F902F900895CF93DF930097D2
:105A700011F1DC01ED91FC9111973097E1F020815B
:105A80002223C9F04681578112962D913C9113979C
:105A90004217530781F4EC01828593850E946A4383
:105AA000892B59F0E881F98181810E94132480FDBE
:105AB00006C080E005C089E003C08FE001C083E03C
:105AC000DF91CF910895009769F025EF260F2230DE
:105AD00048F0693039F06F3029F0FC0182859385F8
